:020000040001F9
:10B00000C0340020D5B00100EFB00100F1B0010064
:10B010000000000000000000000000000000000030
:10B02000000000000000000000000000F3B001007C
:10B030000000000000000000F5B00100F7B00100C2
:10B04000B5B30100F9B0010019B5010029B4010040
:10B050003DB401000000000019B20100F9B0010088
:10B06000F9B00100F9B00100F9B00100F9B0010038
:10B07000F9B00100F9B00100F9B00100F9B0010028
:10B08000F9B0010009B40100F9B00100F9B0010004
:10B0900051B40100F9B0010059B40100F9B0010048
:10B0A000F9B00100F9B0010000000000000000004C
:10B0B0000000000000000000000000000000000090
:10B0C0000348854600F06AF80048004761EA01003D
:10B0D000C03400200321094802680A43026008487E
:10B0E00002680A4302600748804707480047FEE7B6
:10B0F000FEE7FEE7FEE7FEE7FEE70000240500406E
:10B100005405004079B40100C1B0010030B50B46D0
:10B11000014600202022012409E00D46D5409D4231
:10B1200005D31D469540491B2546954040191546B7
:10B13000521E002DF1DC30BD03460B439B0703D0AC
:10B1400009E008C9121F08C0042AFAD203E00B78EC
:10B15000491C0370401C521EF9D27047D2B201E064
:10B160000270401C491EFBD270470022F6E710B562
:10B1700013460A4604461946FFF7F0FF204610BD65
:10B1800030B504460020034600E05B1C934203D226
:10B19000E05CCD5C401BF8D030BD0000064C0125C2
:10B1A000064E05E02046E36807C82B439847103455
:10B1B000B442F7D3FFF788FF0828020028280200CE
:10B1C00070B58C180578401C6B075B0F01D10378B4
:10B1D000401C2A1106D10278401C03E00678401C6E
:10B1E0000E70491C5B1EF9D12B0705D40023521E9B
:10B1F0000DD40B70491CFAE70378401CCB1A921C43
:10B2000003E01D785B1C0D70491C521EF9D5A1424C
:10B21000D8D3002070BD0000F0B50025FF2687B010
:10B22000013601242F460395304603F055FF0028D0
:10B2300007D04A484068204203D0304603F044FF1C
:10B240002543361D64007F1CB6B2042FECD3FF24C7
:10B250007D34204603F040FF002807D0204603F04D
:10B2600033FF600705433E48006903903D4C2807C3
:10B2700015D001270026384628420CD03A48B200A3
:10B28000111808690969C004C00E8903A258890F02
:10B29000002A00D090477F00761C042EEBD3002DAF
:10B2A00059DA00200290401E4FE0A1194031087881
:10B2B0008506AD0E42B2521C3BD00121A94000913F
:10B2C000059A114235D080090190284601F072FBA1
:10B2D000800020580490002804D001980099032889
:10B2E00004D006E00198032823D10099029808436E
:10B2F00002901E4AA80080180068039A8003800FFD
:10B30000114202D0022802D013E0032811D1019982
:10B31000032907D102281CD00221284603F0C4FECD
:10B320007F1CFFB20498002803D0049A2846019994
:10B330009047761C042EB8D3002F0CD00848006923
:10B340000399884207D00390029800273E46059053
:10B35000ABE70321E1E707B0F0BD00000063004068
:10B3600000050050682A00200065004000070050DA
:10B370008307FF22DB0E9A408907090E99400028B7
:10B380000BDA0007000F0838830808489B001B18D9
:10B39000D86990430843D8617047830804489B00EC
:10B3A0001B181868904308431860704700ED00E0D0
:10B3B00000E400E0F8B5FF270137384603F0F4FC5D
:10B3C00001240F4D0F4E002808D0384603F0F4FC3E
:10B3D0000120A8607470002001F02EFBFF270537C4
:10B3E000384603F0E1FC002808D0384603F0E4FCBE
:10B3F0000220A860B470012001F01EFBF8BD00001F
:10B4000000030040542A002010B5064900200860BF
:10B4100048608860C860034940390860486006F0A9
:10B4200093FC10BD4011014010B50249024802F0E2
:10B43000A5FF10BDCC2A00200030004010B5024905
:10B44000024802F09BFF10BDF42A0020004000409B
:10B4500010B506F0D7FB10BD10B5064840680028AF
:10B4600005D08047002801D000F046FA10BD02F058
:10B4700045FF10BD4021002010B502F0E3FF002879
:10B4800005D01F491D484860C8131E4988611E48E1
:10B49000018CC9B201290BD1828C120708D1028D0F
:10B4A0001206120F042A03D1828D1206120F0AD03F
:10B4B000012921D1818C09071ED1018D0906090FAF
:10B4C0000A2904D007E0114A01219160F5E7828D35
:10B4D0001206120F05D00D290ED1808D0006000F27
:10B4E0000AD10B480168012904D00A4901600168AA
:10B4F0000129FCD1C021416110BD0000DFFF07C060
:10B5000000050040006C0040C00F00F00006004045
:10B5100000EC06407593000010B50249024806F0A1
:10B52000B4FD10BDB02A00200020004030B47446A5
:10B53000641E2578641CAB4200D21D46635D5B002F
:10B54000E31830BC184702E008C8121F08C1002ADF
:10B55000FAD170477047002001E001C1121F002A94
:10B56000FBD17047202804DA0121814003480142C1
:10B5700001D001207047002070470000FC06FFBC8E
:10B5800010B500280CD000290AD002780B789A4216
:10B5900006D10622491C401CFFF7F2FD002801D00D
:10B5A000002010BD012010BDF7B584B0064600256F
:10B5B0001788158020300290407B1446002806D062
:10B5C0003A462146059800F099FE050009D1B07869
:10B5D000002823D0059886462088001DB84202D94D
:10B5E0000C2007B0F0BD684679DF0028F9D121882A
:10B5F00003207246505420881921401C80B22080BC
:10B60000115420887146401C80B220804118684641
:10B61000008806F0CCFD218840182080F0780028B2
:10B6200017D0218803230A46F356C91C0598B9424E
:10B63000D6D80221815421880122491C89B2218057
:10B6400042542188491C89B2218043542088401CDF
:10B6500020807068002817D021880023C3560A462E
:10B66000C91C0598B942BBD80221815421880A22FD
:10B67000491C89B2218042542188491C89B2218009
:10B6800043542088401C2080308900280AD0009430
:10B6900030460197062202210830059B06F0E0FDA6
:10B6A00005009ED1308A00280AD0009430460197C8
:10B6B000072203211030059B06F0D2FD050090D132
:10B6C000308B00280AD000943046019715221421AF
:10B6D0001830059B06F0C4FD050082D1306A0028B1
:10B6E00006D03B462246059901F00AFA0500D8D15A
:10B6F000706A002806D03B462246059903F088FA76
:10B700000500CED10298007B002807D03B46224698
:10B710003046059905F04AFE0500C2D13078002870
:10B7200007D03B4622463046059903F0A5FA0500AE
:10B73000B7D1284655E70000174A0021535C002B7B
:10B7400001D0012203E0491C0629F7D30022134946
:10B75000012806D002280BD0032810D0042818D1C5
:10B7600012E04878002803D0002A01D00120704759
:10B770008878002803D0002A01D002207047C878BA
:10B78000002801D0032070470879002801D0042048
:10B790007047002070470000552000201024002032
:10B7A00010B501220221002000F030FF002801D056
:10B7B000072812D107220221012000F027FF0028CC
:10B7C00001D0072809D100210A22084600F01EFFF7
:10B7D000002801D0072800D1002010BDF0B50F4689
:10B7E0008DB0002116466D460F24621A825C6A54A1
:10B7F000491C1029F9D328460D211030FFF7B5FC5C
:10B800000020221A395C5219401C11740328F8D305
:10B8100068464DDF0020211A49192031097831543A
:10B82000401C0328F7D30DB0F0BD00000448426867
:10B830000121C9050B46934383600A40C2607047EB
:10B840000005005070B50024064D06E06968E00070
:10B85000085C012103F03CFB641C28788442F5D38A
:10B86000002070BDE4200020F8B515000C46064607
:10B8700004D003F0FFFB002802D005E00720F8BD4C
:10B8800003F0CAFB0028FAD1104900204E600C706A
:10B89000C8608D6008610E4D0DE0E0006968801998
:10B8A000009181786A46517000780A4A694603F02F
:10B8B0005BFB0028E3D12046641EE4B20028ECD1F3
:10B8C000054A0021024800F023F8F8BDE4200020DA
:10B8D000EC270200EDDC010091CF0100BFF34F8F98
:10B8E00004490348C860BFF34F8F00BFFDE7000065
:10B8F0000400FA0500ED00E00EB500210290009171
:10B900006A4601910148FFF7E9FF0EBD01400000C2
:10B91000094B5B68002B07D0002A07D0002805D010
:10B920000068037C002B03D0082070470720704775
:10B93000417442610020704708210020FFB5900744
:10B94000002481B0164600283AD10125002E37D0B8
:10B950001C49680408601C49401088601A49403935
:10B9600088601A4F7D602F2003F02CFABD60184DBF
:10B970002F20AC6003F026FAAC700498E8602846EB
:10B980001030047044700299817046606C602C70B5
:10B990006C7001240F482405046003211420FFF774
:10B9A000E7FC0848803804600B4C0198A060032134
:10B9B0001120FFF7DDFC6068A860002005B0F0BD35
:10B9C0000720FBE780E100E0401301400010014048
:10B9D000F820002080E200E000150140FEB51F4B7A
:10B9E0005B68002B30D000282ED000292AD0436974
:10B9F000002B29D0437C012B28D00027029104463C
:10BA00000025694616460D70684600F03FF801A80B
:10BA100006F010FC00281BD0012101701049446081
:10BA200049688160029907614661C16068460B49B7
:10BA3000007948706846007800F046F806F024F96E
:10BA40002846FEBD0720FEBD0820FEBD0F46D5E7F7
:10BA500068460425007800F037F8F1E70821002057
:10BA60000015014010B50849496800290AD000288E
:10BA700008D04169002905D000210174022106F097
:10BA80002BF910BD082010BD0821002030B5EFF3C0
:10BA9000108172B6094A54680123002C04D0037047
:10BAA000002900D162B630BD5360054B1D68054CBE
:10BAB000254015601C6000220270F1E71C21002067
:10BAC00080E100E0FC06FFBC08494A68002A0CD06F
:10BAD00000280AD1EFF3108072B60A68044B1A608E
:10BAE00000224A60002800D162B670471C21002065
:10BAF00000E100E0F0B504468BB0008800F01CFBCC
:10BB00000590208802F068FB0646A0680090657AE0
:10BB1000684605741E4F20880022397800F05CFBCF
:10BB20000598002831D06079400710D507213046AC
:10BB300004F070F8002813D0082269460A7422889D
:10BB40004A828E82069004A801F012FB08E0208849
:10BB5000B97800F02FFB002802D0304602F026FB17
:10BB60000321684601712188C18060794007C10FB7
:10BB700068460172A0794007C10F6846417201789A
:10BB80008172C57201A801F0F3FA0BB0F0BD00009C
:10BB9000C8200020F0B50C4693B01F216A461180E2
:10BBA000072600279180002809D0C17849070DD5C4
:10BBB00002A9FFF7F9FC002809D102AD01E0002538
:10BBC0001780002C0ED0E078002802D0304613B049
:10BBD000F0BD01AA0AA92046FFF7E6FC0028F6D12D
:10BBE0000AAA02E068460022878068468088C3B2BD
:10BBF00068460088C1B2284672DFE8E7FFB581B029
:10BC00001E460A9F1346040047D0002B45D0504DD6
:10BC1000012028700020E870202219464D48FFF7C7
:10BC20008BFA00206F61C0432E61288128460721CE
:10BC30001830FFF79AFA474838212030FFF795FA75
:10BC40004448217820300170A1788170E178C1707A
:10BC5000617841703F4A65692369556311461363F2
:10BC60002031E368A268CB608A603A49E369A2693F
:10BC7000CB638A63616A00291AD0014638310246D3
:10BC8000443241628A60636A1B880B80616A436A3E
:10BC9000898899800021436A07E00E2005B0F0BD35
:10BCA000656AAD686D5C5554491C9D888D42F7D816
:10BCB000A16A00291CD0274A903211460C398A60AB
:10BCC0008162A36A9B888B80A16A836A0988198034
:10BCD0000021836A04E0A56AAD686D5C5554491C77
:10BCE0009D888D42F7D82C210A5D1A4940310A738C
:10BCF000216A002909D016490A310162226A528854
:10BD00004A80216A026A098811806168002900D08E
:10BD10004160104A0E490020AF322031C3001B1A87
:10BD200085009B180C68401C63510828F6DB094A03
:10BD30000020E732030185009B188C68401C63518A
:10BD40000828F7DB034802992030FFF723FFA5E717
:10BD50003C2000201024002010B50188134C10292D
:10BD600015D0112919D01B2910D1007A00280DD126
:10BD7000E0780521401CFFF7C9F9084600F04EF8AD
:10BD8000002803D06169002900D0884710BD817D5B
:10BD90000129FBD18088208110BD0021617180883C
:10BDA00021898842F8D10120E8E700003C200020EA
:10BDB00010B5022801D003280ED1084C6078002865
:10BDC0000AD000206070E07800F028F8002803D046
:10BDD0006169002900D0884710BD00003C20002088
:10BDE00010B574DF0B4C012060710B490620C87040
:10BDF00000210948FFF7CEFE002809D1E07800F0C5
:10BE00000DF8002803D06169002900D08847002080
:10BE100010BD00003C20002030240020F1B53F4C34
:10BE200088B0207800280AD00898E07006A801F0B1
:10BE3000A9FC06980125002804D065706AE0082056
:10BE400009B0F0BD3548002707211830FFF78DF9FC
:10BE5000334E7078002802D0E078012807D0B078FF
:10BE600000280CD0E078012801D0022807D12169F0
:10BE7000002903D025710820884700E02771089821
:10BE8000FFF75AFCE0702169002909D0032801D08E
:10BE9000042805D13078002802D06079002811D01C
:10BEA000A77118216846FFF760F9684607700772A6
:10BEB000E1781A480B001830FFF738FB052E080F01
:10BEC000191D2000A57107208847EAE7A570019099
:10BED000684605704782078213E00221A170019035
:10BEE00068460570B18941823189018209E068465E
:10BEF00005F068FB02E0684605F090FBE07800285A
:10BF000003D0684673DF00289AD12169002901D047
:10BF1000A0788847002093E7A770F6E73C20002030
:10BF20001024002070B5054601461C220E48FFF77C
:10BF300003F90E4C002626702968002906D0082235
:10BF4000201DFFF7F9F8201D7ADF02E00748001DE9
:10BF50007BDF002807D1401E60806670044A002104
:10BF60000448FFF7D5FC70BDD82500206C200020C8
:10BF7000B921020058270200F8B5214C0146028879
:10BF800000261E48E589102A13D01E4F112A1FD003
:10BF9000122A2BD0502A1AD1881DC988A94216D13D
:10BFA0004189022913D10C3000F0F8F900280CD196
:10BFB00012E08A88044642801048082218310C306A
:10BFC000FFF7BAF86670002D01D100F0E1FDF8BD71
:10BFD0000021C943418046703868FFF743FD0028BF
:10BFE000F5D0A1690029F2D08847F8BD034808229E
:10BFF00008310C30FFF7A0F8E7E700006C200020C4
:10C00000D82500205827020010B503490A7D091DD4
:10C0100005F017F810BD0000F4250020034B10B503
:10C020000246D97D181D04F0F9FF10BDF42500204B
:10C03000034B10B50246197E181D04F0EFFF10BD2A
:10C04000F4250020F0B50446028839488DB0014639
:10C0500015310191102A09D0112A4FD01A2A49D13D
:10C06000217A090901294DD901234CE0027D417D46
:10C0700005468A43011D07A804F0E3FF142207A91F
:10C0800002A8FFF759F800262948374614300890CF
:10C090000AE0710002A8081883881D220097281D55
:10C0A000089904F07BFF761C0298B042F1D8287DF5
:10C0B000A688C043C0B204F095FF1E49884216D03E
:10C0C00040004019868001233246281D019904F062
:10C0D000DBFF01233246281D089904F0D5FFA07D1F
:10C0E000022809D000231249A28816311CE004203E
:10C0F000FFF702FC0DB0F0BD0123F4E70023A28896
:10C10000001D12E000230A490546A2881731001DD0
:10C1100004F0BAFF207A0009022801D9012300E0C7
:10C1200000230349A2881831281D04F0ADFFE1E780
:10C13000F4250020FFFF000070B50B4E05460024DB
:10C14000317D2A46301D04F069FF002809D0B17DF9
:10C150002A46301D04F062FF002801D0022400E0CE
:10C160000124204670BD0000F425002010B50024F5
:10C17000204606F053F8002805D0641CE4B2182CC1
:10C18000F6D3182010BD044801220168A2401143D3
:10C190000160204610BD0000F425002010B50446C3
:10C1A00006F03CF8002802D001480019407E10BD7E
:10C1B000F425002070B505460C46084606F02EF81A
:10C1C000002806D003482A460119497E001D04F0C4
:10C1D00025FF70BDF425002070B5064615460C46B7
:10C1E000084606F01BF8002807D004482B46011922
:10C1F00019313246001D04F047FF70BDF4250020C0
:10C2000010B5002804D0002902D000F049FD10BD6F
:10C210000E2010BD10B5002804D0002902D000F077
:10C22000D5FD10BD0E2010BDF7B586B01646040032
:10C2300023D000250127684600950780458007A880
:10C2400001903188E0886A46A4DF002813D1E08895
:10C250000C49884213D002950395049505953188C1
:10C260006846018187724188818104900198059018
:10C27000E08802A9A6DF09B0F0BD0E20FBE7082088
:10C28000F9E70000FFFF000038B5002924D000289E
:10C2900022D00288102A16D0112A1ED0502A1BD173
:10C2A0000C46801D0188A289914215D1418902293D
:10C2B00012D1216800290FD00C3000F06FF800284F
:10C2C00015D0002014E08088C8800A460320694603
:10C2D000087013681046984738BD08460021C943C6
:10C2E000C18002216A4611706946026804E001209B
:10C2F0006946087022682046904738BD7CB50546DF
:10C3000008880C460930904201D90C207CBD684653
:10C3100071DF0028FAD121880820685420881B2169
:10C32000401C80B220802954208800A9401C80B283
:10C330002080401906220131FEF7FEFE2088694662
:10C34000801D80B220800978002900D00121295465
:10C350002088401C208000207CBD000010B50446D1
:10C36000FFF770FE204604F059F90B492046FFF70D
:10C370008BFF094920462431FFF786FF2046FFF74F
:10C38000FBFD204600F074F8204602F0DDFE20465A
:10C39000FFF7E2FC10BD0000642200204178027823
:10C3A00008021043C007C00F7047000000B51748CF
:10C3B00087B08068059000234822154905A805F03C
:10C3C000DDFB002801D0FFF797FA6A460121002023
:10C3D00005F0BCFB002801D0FFF78EFA684605F097
:10C3E000ABFB002801D0FFF787FA0A4805F09AFB5B
:10C3F000002801D0FFF780FA074805F0F1FB00287C
:10C4000001D0FFF779FA07B000BD000078260200DE
:10C410001C2200205DC30100F51B02007CB5134EF9
:10C4200000250C463060002918D06946002000F035
:10C43000B5F8002819D101A9012000F0AFF80028B3
:10C4400013D1684601790020002901D0022004E0C0
:10C4500069460978002900D00B20207070680028F8
:10C4600002D1FFF79DF9054628467CBD302000200B
:10C4700010B51C4C0188606810290DD011290AD113
:10C48000401E606007D1FFF78BF9002803D02168B8
:10C49000002900D0884710BD00281ED100210122AC
:10C4A000084600F0B3F8002801D0072811D1072270
:10C4B0000221012000F0AAF8002801D0072808D1A5
:10C4C00004220221002000F0A1F8002805D007284E
:10C4D00003D02168002900D088476068401C606054
:10C4E00010BD00003020002010B5032000F00CFA31
:10C4F000002801D0062800D1002010BDF8B507465D
:10C500000024234802E0641C042C1AD2A2008258A2
:10C51000BA42F8D1042C14D21D481E4E0C38002902
:10C5200029D001290ED002290BD1600020188019D2
:10C530004578002D05D018480169002901D028460A
:10C540008847F8BD61006118755C8E197178002903
:10C550000CD011490A224968806851430E4A521C86
:10C56000FFF73CFA002801D10B4847700A48B17820
:10C5700014300155DDE78068FFF774FA0648610062
:10C58000611814308919005D8D78A842D1D0F8BDAA
:10C5900028270200E42300201820002004280CD2C1
:10C5A000074A1269074B80001B5C012098409043AA
:10C5B00000D001200870002070470020FAE700003A
:10C5C000000500502827020010B50E4A042806D0A6
:10C5D00007280DD00A2801D105F04AF810BD132113
:10C5E000908876DF0AE00028F8D0FFF785F910BDC3
:10C5F000908805498842FAD1FFF7F2FB0828F2D16A
:10C6000010BD0000E81F0020FFFF000070B50023F0
:10C61000042811D2440004190D4D012A02D1012928
:10C620000DD0002246008019094E801900290CD037
:10C63000012906D0022906D00723184670BD0D3007
:10C64000C2B22A55F9E74270F7E78270F5E70000B9
:10C65000E423002010B5054A0146127A0020D207D3
:10C6600002D0084600F054F810BD00001820002049
:10C6700070B50E46204905464E608D6000200A6167
:10C68000A9071ED50024012211462046FFF7BEFF50
:10C69000641C042C02D20028F5D012E0002810D12E
:10C6A000720804211548FFF7DFF8002809D1FFF7C9
:10C6B000C9F8002805D11148114A00211438FFF7A4
:10C6C00027F9E90706D00F220E4952058A60002398
:10C6D000CB608A6100280DD108480B4A00211C3824
:10C6E000FFF716F9002805D10448084A0121183837
:10C6F000FFF70EF970BD0000182000203827020057
:10C7000045C9010000050050B1E401002DB8010049
:10C71000FEB57A4D0722EB6892059A4302936B6847
:10C7200000939C0006461B19002001210193490536
:10C730000746734C3300FEF7F9FE180D1515374701
:10C7400055677C887F8891DE9E9E9E9E9EC8CED136
:10C75000D8DEDE140F21029A49059143A160E760FB
:10C760002F70FEBDA260E76060680F225205504046
:10C77000800209D5A160E760022E02D1E120C0004D
:10C780000AE07D20400107E0E160A760022E01D1B0
:10C79000C82001E0FF2091302E706421FEF7B6FC26
:10C7A0000099414300223FE0A260E76060680F22E9
:10C7B00052055040800204D5A160E7601920400175
:10C7C000EAE7E160A760E3E7A260E76060680F2244
:10C7D00052055040800202D5A160E760D1E7E160D8
:10C7E000A760D7E7A260E76060680F22520550405B
:10C7F000800202D5A160E76001E0E160A7602E70D1
:10C800000098410000220FE0A260E76060680F22FC
:10C8100052055040800202D5A160E76001E0E1606E
:10C82000A7602E700099002236480068FFF7D6F8FE
:10C83000FEBDA260E7601BE0616801208005024642
:10C840008A43A2600140E16010E06068012189052F
:10C850000A468243A2600840E060E3E76068012185
:10C8600089050A468243A2600840E0600199C9E751
:10C87000E160A7602DE023484068FFF7F3F811213D
:10C880008A1B01D0002807D00F22E9685205114009
:10C89000A160E760EF60FEBD0121C905E960012AE2
:10C8A0000CD91046C82148436421FEF72FFC696863
:10C8B0000022414313484068FFF790F80F22E968CF
:10C8C00052051140E160A760FEBD0F214905A1603E
:10C8D000E7602E70FEBD07229205AAE70D214905EB
:10C8E000A160E76001218905C2E70321C905A160B4
:10C8F000E7608910BCE70F214905B9E7182000203F
:10C90000000500501C270200F0B500210B4C0C4D17
:10C9100003273F048A00A258920056193268012367
:10C920008B40034000D00323BA431B0413433360FE
:10C93000491C0429EED30020F0BD00002827020086
:10C940000007005010B500780221FFF7D7FD10BD99
:10C950000022D243830004490428CA5002D3081895
:10C960002030027770470000682A0020F0B50025CB
:10C97000ED43002A02D00023042601E00423082608
:10C980000B4C04E09F00E7597F1C04D05B1CB342B2
:10C99000F8D32846F0BD26185DB2203635709E00CB
:10C9A000A151002AF5D1E11820310877F1E7000004
:10C9B000682A002002490918202008567047000004
:10C9C000682A0020002807D00449814204D804497D
:10C9D000814201D901207047002070475421002076
:10C9E00064210020044A0168914201D0083101E02D
:10C9F0000149383901607047182C002070B50D4D81
:10CA000004460A462846AC4208D1FF240134214698
:10CA1000104603F0C1FDA0420AD070BDFF2CFCD827
:10CA20002146104603F0AAFD002801D0204670BD23
:10CA3000284670BDFFFF000070B5084C050009D006
:10CA400010342168002907D008682060496828460A
:10CA50008847F6E70834F4E770BD0000542A002048
:10CA6000F8B52148416800293DD00E681F494C683F
:10CA700087688078E11B0D022D0AED1C002814D177
:10CA800001201B4A00045060194A403A506019497D
:10CA900040000860184908601849012008602F20EC
:10CAA00002F090F9104901208870B54200D2354655
:10CAB000E81900020D4B000A403318600B4A516818
:10CAC000001B091B0902090A0002C91C000A814255
:10CAD00009D9506818602F2002F074F90120054927
:10CAE000400480390860F8BDF8200020001501409E
:10CAF0004013014080E200E000E100E0001001404E
:10CB0000F8B50646108814468446801D0D469842A6
:10CB100001D90C20F8BD32880720062AFAD319273C
:10CB2000FF01184BBA4201D99A42F3D17188062904
:10CB3000F0D3B94201D99942ECD19A4203D099423B
:10CB400001D08A42E6D80521604629542088122166
:10CB5000401C80B2208029542088401C80B2208054
:10CB60004119308805F023FB2188401880B22080CD
:10CB70004119708805F01BFB218840182080002097
:10CB8000F8BD0000FFFF000010B5FEF7B5FE10BDB8
:10CB9000F8B5164801F048FC144D00260C3D144C25
:10CBA000002807D0616900291CD001206A46107056
:10CBB000684616E02878002805D06169002911D060
:10CBC000684606700DE0687800280DD0A168094815
:10CBD00000220068FEF702FF002803D0A1690029A7
:10CBE00000D088472E70F8BD6168F0E778200020FB
:10CBF000D825002058270200F0B5002405460E462F
:10CC0000601C01078FB0090F103168460794017747
:10CC1000601C0107090F103168464177717941772F
:10CC2000817FF9273940891C81771C21FEF79DFA05
:10CC3000684601781A2001436846017007A80194EC
:10CC400005900394049406942020415D08A8817106
:10CC500005218902684681840894B17908A8017089
:10CC6000F17941708078E7213840801C0840410804
:10CC7000490008A8817014210AA8FEF776FA09A8CD
:10CC80000A9008A801210B90684601864486818697
:10CC90002B46A88808330AAA6946A2DF0FB0F0BD68
:10CCA000F0B5002405460E46601C010797B0090F39
:10CCB000103108A80C940174601C0107090F103191
:10CCC00008A8417471794174817CF9273940891C25
:10CCD00081741C2105A8FEF748FA6846017D1A20D8
:10CCE0000143684601750CA806940A9008940994BB
:10CCF0000B942020415D08A8817615210902684621
:10CD000001870D94B17908A80175F1794175807D8D
:10CD1000E7213840801C08404108490008A8817577
:10CD200014216846FEF721FA244A00212448FEF720
:10CD3000EFFD23480022A4210068FEF74FFE214E9C
:10CD400001E003F0CEFE30780128FAD134701E499C
:10CD50000F9410941194149414AB0FAA48101594C6
:10CD600000F05EFB00281AD01648801C04900EA824
:10CD700000900DA801900120694608814C818881AE
:10CD80002B46A88810336A4605A9A2DF0C49044641
:10CD9000091D0FA800F088FB204617B0F0BD12A9AE
:10CDA0000FA800F05FFB002806D00648401C049046
:10CDB0000FA800F015FBDAE71398F8E77DD501001E
:10CDC000842602000E20002022220000F0B500245C
:10CDD00005460E46601C010797B0090F103108A8E0
:10CDE0000C940174601C0107090F103108A84174EC
:10CDF00071794174817CF9273940891C81741C2127
:10CE000005A8FEF7B2F96846017D1A20014368467D
:10CE100001750CA806940A90089409940B9420209C
:10CE2000415D08A8817615210902684601870D94A5
:10CE3000B17908A80175F1794175807DE721384005
:10CE4000801C08404108490008A8817514216846E3
:10CE5000FEF78BF9214A00212148FEF759FD2048B1
:10CE60000022A4210068FEF7B9FD1E4E01E003F088
:10CE700038FE30780128FAD134701B49119412948D
:10CE80001394149414AB11AA4810159400F0C8FA26
:10CE9000002813D01348801C04900EA800900DA801
:10CEA0000121019068460181448181812B46A88837
:10CEB00018336A4605A9A2DF17B0F0BD0FA911A863
:10CEC00000F0D0FA002806D00648401C049011A8B3
:10CED00000F086FAE1E71098F8E700007DD5010040
:10CEE000842602000E20002022220000F0B585B02A
:10CEF0000C46002802D0012005B0F0BD20790027A3
:10CF00000126002806D01F4D012820D002282CD051
:10CF10000F20F1E702970397E0680190694601A8A6
:10CF200003F008FF00280ED002988188E180008875
:10CF30002081029803F078FF694609880A011249A6
:10CF400051188E7300E00A2002212171D4E70F4BA3
:10CF50006A460021A01D03F0ABFE002807D00B4954
:10CF600008398F60CF600A28C6D12846C4E70198E7
:10CF700003F05AFF054989880A01034951188E7345
:10CF8000F1E700001D1D0000282C00202C210020AE
:10CF9000F8B500260124154D24E06968F000471813
:10CFA0003878214681402A690B46134218D08A43BB
:10CFB0002A6102F027F83A782146EB68914019403F
:10CFC0000346934099420BD17978012901D0012180
:10CFD00000E000217B684140002B01D010469847BB
:10CFE000761CF6B228788642D7D3F8BDE42000201C
:10CFF00010B50E4900230A784C78A24212D0521C78
:10D00000D2B20A70022A00D10B700A78074B920044
:10D0100018339A580260886810180002000A886065
:10D02000012010BD0360002010BD0000F82000208A
:10D030003EB5094D383538CD0093029501946B46C5
:10D04000588099809A71054900220978FFF7C4F841
:10D05000684600F08DF83EBDA4270200C8200020DD
:10D0600010B5047800222300FEF760FA07060507D2
:10D070000D1D262C06000A7010BD01220A700289BF
:10D080008A81828814E002220A7002898A81828859
:10D09000CA81C2688A60007C062802D00020087419
:10D0A00010BD0120FBE703220A70C2888A81028931
:10D0B000CA81C068886010BD04230B70C088888155
:10D0C000CA8110BD0520087010BD000070B5064D66
:10D0D00006460024A0002958002901D03046884780
:10D0E000641C082CF6D370BD482B00200EB5002917
:10D0F00010D011290ED00022009202926A46508070
:10D1000001910D2907D0042907D00920107010467D
:10D1100000F03CF80EBD0B20F8E70A20F6E700000F
:10D1200001490968084700008820002070B5054DB6
:10D1300006460024A000295830468847641C022C6B
:10D14000F8D370BD74270200F8B507460024064ED8
:10D15000064D04E0A000315838468847641CE87842
:10D160008442F7DBF8BD0000082A0020B820002028
:10D1700070B5054D06460024A00029583046884762
:10D18000641C022CF8D370BDA42702000149096871
:10D1900008470000E82702007FB5044640680028E1
:10D1A0000BD00020039020780026414D0300FEF7AD
:10D1B000BDF9066D0606304E7B6D0120F2E7A089B1
:10D1C00000F0E8F9002804D1E08903F045FE0028CA
:10D1D0005CD0A08900F0D8F9014668464180E0891A
:10D1E00003F034FE0146684601712078012860682A
:10D1F00007D0002809D004206946087060680390B1
:10D2000020E00028F8D00320F6E70120F4E70846E4
:10D210003AE0A08900F0BEF9002804D1E08903F0CB
:10D220001BFE002832D0A08900F0AEF96946488084
:10D23000E08903F00BFE694608716068002804D09D
:10D2400005200870A0680290E1E70220F9E7A089B4
:10D2500000F0A0F9002819D0E089002816D1A08993
:10D2600000F092F969464880E08903F0EFFDFF2065
:10D2700069460871606800280FD0072008706E703A
:10D28000AE7002F0A1FE684602F05CFD68780028EE
:10D2900002D06E7002F098FE7FBD062168460170D4
:10D2A000408802F01FFFEAE7082069460870AEE7F1
:10D2B000A420002000B5104987B00978890702D45E
:10D2C000022007B000BD0D49884201D10420F8E7D3
:10D2D000052269460A7001220A71C880002211469F
:10D2E000684601F0C7FF002803D003F0C5FC00200A
:10D2F000E7E70820E5E7000024210020FFFF000009
:10D3000000B50F4887B00078800702D4022007B02C
:10D3100000BD06206946087000221146684601F0EB
:10D32000A9FF002809D007480178002901D0012170
:10D33000017303F0A1FC0020E9E70820E7E7000003
:10D3400024210020482C002000B58DB0142168460F
:10D35000FDF70BFF1E480078810703D56846FFF7ED
:10D36000B5FE32E0C00730D1012000F039F900F0FD
:10D37000B3F902F0D5F900280ED006280FD001210C
:10D380006A4611750300FEF7D1F80C19111911192D
:10D3900018191819131613190B200DB000BD02200F
:10D3A00000F01EF9012000F001F9D7E7002000E0AD
:10D3B0000320107602E00220FBE7117600221146DE
:10D3C00005A801F057FF03F057FC0020E5E7000037
:10D3D000242100200149012008707047E81F002027
:10D3E00038B5040014D0694603F0A4FC002813D01B
:10D3F000684600880101094809188889002809D071
:10D40000A27A002A06D0401E88810020A07238BD72
:10D41000052038BD062038BD0A2038BD282C002044
:10D420001FB501A9684603F043FC04B010BD07B561
:10D4300013460A466946002003F03AFC0EBD07B5C4
:10D4400013460A460021684603F032FC0EBD002850
:10D4500005D0002903D0006808600020704705202F
:10D460007047000038B50D46040017D0002D15D0C8
:10D47000694603F05FFC002812D0684600886168A6
:10D480000201084812189089401C90812960606848
:10D490000C3068600120A072002038BD052038BD26
:10D4A0000A2038BD282C002010B5002804D0032302
:10D4B000002204F0AFFF10BD052010BD10B50223FF
:10D4C000002204F0A7FF10BD10B5002A03D00223EC
:10D4D00004F0A0FF10BD052010BD000010B5064AE5
:10D4E0005178082906D08B00044C491CE05051703B
:10D4F000002010BD0C2010BD24210020482B00204E
:10D5000038B504460A480D460078800701D4022049
:10D5100038BD002C0AD06946284605F087F8002857
:10D52000F6D1694609882180658038BD052038BD5F
:10D530002421002010B504460E480078800701D44D
:10D54000022010BD002C10D0218802290FD80A4AD1
:10D550000801801842896088121AD21E07D405F08B
:10D560005BF800202080608010BD052010BD0420E5
:10D5700010BD000024210020282C0020014901209A
:10D58000087070470E20002003218903401A80B2E2
:10D590007047000003218903401A0349884201D8DB
:10D5A0000120704700207047FE3F000002490A78C2
:10D5B00082430A70704700002421002010B5044601
:10D5C0000078182802D1FEF7D1FD207010BD10B5EB
:10D5D00004460078182802D1FEF7C8FD207010BD5F
:10D5E00002490A7802430A70704700002421002093
:10D5F00070B5064600200546042906D0112902D040
:10D60000002903D070BD012500E001200E4C002A46
:10D6100002460FD061793046FEF7DEFD2A462179B9
:10D620003046FEF7D9FD002261783046FEF7D4FD82
:10D63000002204E061783046FEF7CEFD2A462178CC
:10D640003046FEF7C9FD70BDCC20002070470000B9
:10D65000F8B506461C481F46007815460C46C0071C
:10D660000AD03046FFF7AEF9002807D0002C07D0CB
:10D67000A00507D00620F8BD0120F8BD0220F8BDA6
:10D680000320F8BD3068A04204D8A80271680019D0
:10D69000884201D90520F8BD002D11D0684603F05D
:10D6A0003DFA00280ED00098022147600660017202
:10D6B000A101090C8181058203F0ECFA0020F8BD7C
:10D6C0000420F8BD0720F8BD3C21002010B5084615
:10D6D00003F040FA10BD0000F0B52648264C001BB0
:10D6E0000309264819464069421C03D1012000075E
:10D6F00040698002224A12789646D2070CD0002058
:10D70000F0BD1D4C15012C192568002D03D064684F
:10D71000002C00D0491E521C9A42F2D3002420E073
:10D72000E2B2002594462A460FE0134E1701BE19B7
:10D730003768002F02D07768002F05D1767BAE4284
:10D7400002D93546D6B2B446521C9A42EDD362464F
:10D750001501094AAA185060157BAD02401B641CD4
:10D7600010608C42DCD306487146012211430170DF
:10D77000C5E70000642100205421002000100010A3
:10D780003C210020002804D00349496E016000209C
:10D790007047032070470000582C0020F8B507465A
:10D7A0001E481E46007815460C46C0070ED0384667
:10D7B000FFF708F900280BD0002D0BD0002C09D062
:10D7C00028462043800707D00620F8BD0120F8BD79
:10D7D0000220F8BD0320F8BD3868A04204D8B1008B
:10D7E00078680919884201D20520F8BD002E11D0B1
:10D7F000684603F093F900280ED000980699076058
:10D80000416001210172C5600461868203F042FA21
:10D810000020F8BD0420F8BD0720F8BD3C21002001
:10D8200070B5174B0446186E182148431549C018A7
:10D830000A78950715D5022C02D0032C1CD102E0E2
:10D8400001F0EEFC18E04A78521CD2B24A70032A6A
:10D8500012D900224A70082103F0EAFC03F048F9CB
:10D860000AE0500708D5FB2002400A70586E0028D5
:10D8700002D0022002430A7003F0C8F970BD000014
:10D88000582C00203C21002070B5002801D0012038
:10D8900070BD164C0025207B002801D0257301E0C7
:10D8A00000F09CF820780300FDF740FE081E0508F4
:10D8B0000B0E1E111A1E00F01BF870BD00F07EF852
:10D8C00070BD00F061F870BD00F038F870BD608880
:10D8D0000649000120394018406801F001FF70BD81
:10D8E000656001F00BFF70BD0F2070BD482C00205B
:10D8F00070B5104900208A1C0D460346203D0C18C7
:10D90000A67A002E08D0A37204016419A689002EFD
:10D9100002D1A47B012C08D0401C80B20228EED397
:10D920000B704B8004484B6070BD108000F046F8CF
:10D9300070BD0000482C00201D1D000010B50F4CCC
:10D9400060880101204620380818818900290BD001
:10D95000052020700A4802218180016800230122ED
:10D960000848FFF775FE10BD4168002301220548F5
:10D97000FFF76EFE0421217010BD0000482C00202E
:10D98000342100205421002038B50A4908480B688A
:10D99000898842688900591853880324047000203C
:10D9A000DB1C00909BB20448FFF7F8FE38BD000076
:10D9B000482C0020342100205421002010B50649B5
:10D9C0004888091D03F006FA002802D0FFF7DCFFA3
:10D9D00010BDFFF7B3FF10BD482C0020F0B51D4867
:10D9E0001D4907780246012502268C88203A3B0013
:10D9F000FDF79CFD080517171A212C2C1617018915
:10DA0000491C01810021418001730B01D35C002B73
:10DA100008D000234418491C89B2A3720229F4D308
:10DA20000570F0BD0123F5E742685288D21CA218A8
:10DA30008A800670F0BD45880B682D01AA185568CC
:10DA40000D60536014818E80062100E00721017073
:10DA5000F0BD0000482C002034210020F0B5044621
:10DA60000088384D8DB050281DD0522802D054283F
:10DA700026D103E0A08800F061FF21E0062069467E
:10DA80000870A08800F0A8FB69464880A2888A80B8
:10DA900000F056F9A0880022E978FEF79DFB684661
:10DAA000FFF73EFB0CE0207B012809D1A07A01287A
:10DAB00006D120892449884202D1A08800F07AFF4B
:10DAC000A878FEF76BFB002819D008A8FEF79CFA8F
:10DAD000142208A903A8FDF72FFB002403AE0BE0D6
:10DAE00060008719B888A978FEF764FB002802D087
:10DAF000B88800F023FF641C0398A042F0D868782F
:10DB0000FEF74CFB002819D008A8FEF77DFA142276
:10DB100008A903A8FDF710FB002403AE0BE060008A
:10DB20008719B8886978FEF745FB002802D0B888C5
:10DB300000F040FF641C0398A042F0D803F09CFB67
:10DB40000DB0F0BD80200020022900003EB5044643
:10DB50004088694648802078002814D001281DD0CC
:10DB600002280FD1207900280CD0608800F068FAD4
:10DB70000E49884206D00E490122C978FEF72CFBD7
:10DB800003F07AFB3EBD002008700846FFF7C8FA94
:10DB9000608800F055FA00F0D1FE3EBD01216846D4
:10DBA0000170A1888180FFF7BBFA3EBDFFFF000036
:10DBB0008020002010B50446007801280DD160882F
:10DBC00000F0BCFE608800F07FF9002805D0034912
:10DBD00060880122C978FEF7FFFA10BD802000207E
:10DBE00010B5104C00202070FEF7C0FA6070FEF7F0
:10DBF000BDFAA070FEF7BAFAE070FEF7B7FA20712E
:10DC0000617818290BD0A178182908D0E178182953
:10DC100005D0182803D001202070002010BD03205B
:10DC200010BD000080200020F0B585B000F0A0F805
:10DC30006846FEF7E9F900246D460C4F0EE06000DF
:10DC40004619B08800F0C8FAB84205D10849B08832
:10DC50000122C978FEF7C0FA641CA4B20098A04261
:10DC6000EDD803F009FB05B0F0BD0000FFFF000098
:10DC70008020002010B50178072902D1408800F0EB
:10DC800099FE10BD10B504460A4841782046FEF7BB
:10DC900091FA00280CD0084800210C224A4312189F
:10DCA0005288A24201D1C8B210BD491C0829F4D340
:10DCB000FF2010BD982000202826002070B5094DB7
:10DCC000094E00240C206043401940887178FEF70B
:10DCD00071FA002804D0641C082CF3D3FF2070BD17
:10DCE000E0B270BD2826002098200020F8B5074635
:10DCF000114E0125BD403068FDF7B4FE002806D165
:10DD00000E4C20690146294202D0A8432061F8BD8B
:10DD1000384601F077F90028E06801D0284300E098
:10DD2000A843E0602069002228432061A168306890
:10DD3000FDF754FEF8BD0000EC270200E4200020AF
:10DD40001CB5054A9168D26801920091002269468B
:10DD500001F0C0FE1CBD0000602702000348002146
:10DD6000C943818001210170002070478C20002070
:10DD700010B5044801F0DAFD0349888003F0A8FAE1
:10DD800010BD0000FFFF00008C200020F1B582B024
:10DD9000029800F021FA002416490325012726469F
:10DDA000884209D06A46082101F06AFE002803D1A2
:10DDB000019886880568841D2B46324621460298C4
:10DDC000A9DF042804D0082804D00B2807D002E0DB
:10DDD000112000E00020002F00D10B20FEBD002705
:10DDE000A80701D50125E7E73443F6D000242646ED
:10DDF0000325E1E7FFFF0000F1B582B0029800F0D3
:10DE0000EBF907461B48874201D11B48FEBD01259F
:10DE10002A466D1C0026ADB26B460821384601F03B
:10DE20005FFE040002D0072C21D021E001990323DA
:10DE30000B600A1D891D0298AADF040004D00C2C77
:10DE400008D0052C08D008E00821384601F0E2FE91
:10DE500004460DE0012600E000240821384601F0C8
:10DE6000C3FE002800D00324002ED1D100E00C24F2
:10DE70002046FEBDFFFF0000023000001FB5044633
:10DE80000078012813D12079012810D1608802AAD6
:10DE9000012101F0F5FD002809D102216846017039
:10DEA000618841800121017105490968884704485A
:10DEB000044908388088884201D003F009FA1FBD60
:10DEC00094200020FFFF00001CB500F085F96A4691
:10DED000012101F0D5FD002801D000201CBD0198D2
:10DEE00000781CBDF8B5074E074C084D0746324672
:10DEF00061883846A7DFA84203D16088401C608053
:10DF0000F5E7F8BDFFFF00008C2000200330000083
:10DF10008188054A914204D00088002801D0012060
:10DF20007047002070470000FFFF00003EB5044628
:10DF300000780D46022815D10322611C6846FDF7C2
:10DF4000FBF80322211D02A8FDF7F6F801AA02A999
:10DF50002846FDF743FC032201A96846FDF710F9A6
:10DF6000002801D000203EBD01203EBD10B50C466A
:10DF7000FFF788FEFF280AD00C21484305490722F5
:10DF80004118091D2046FDF7D7F8002010BD0520D7
:10DF900010BD00002826002070B5018890B010291F
:10DFA00049D1011D2C2202A8FDF7C6F86846234E70
:10DFB000007B344602AD03282AD001F033FF6846C7
:10DFC000007B00280ED001280CD0022820D118E0B8
:10DFD0000E99281D1131FDF7D3FA002802D06846AA
:10DFE000048815E00DAA6946072001F0F1FE00281B
:10DFF000EED10DE00E99281D491CFFF797FF002870
:10E00000EDD10DAA6946072001F0E2FE0028F1D10A
:10E0100068460089291D00F07FFEB4420BD0684697
:10E020000089214600F086F8684601894180012177
:10E030000170FFF77BF810B070BD0000FFFF00001B
:10E04000084A00210C234B43D35A834204D10C20AD
:10E050004143881840887047491C0829F2D3024878
:10E060007047000028260020FFFF000010B50E4C6E
:10E07000182060700D4A0E4900200C2343435B18A2
:10E08000401C5A800828F8D3FEF770F860701828F2
:10E0900004D00548C01C71DF002801D0032010BD4A
:10E0A00001202070002010BD98200020FFFF0000FC
:10E0B0002826002070B504460D46401C00F0E6F905
:10E0C000002810D01022691C601CFDF759F80028A8
:10E0D0000AD000262946204611311130FDF750FAAA
:10E0E00001463046084370BD0126F3E70188002948
:10E0F00003D142189278002A01D001207047491CB0
:10E100000829F6D30020704710B50C460346FFF7E8
:10E11000EDFF00280BD018882188884206D10822FC
:10E12000A11C981CFDF72CF8002801D0002010BD80
:10E13000012010BD10B502F031F810BD10B5044635
:10E14000007888B0002826D12079072823D160885C
:10E1500001AA072101F094FC00281CD101F062FE05
:10E160001BE0694660880988884216D004990298A5
:10E17000FFF7A0FF002810D06088FFF761FF01467D
:10E180006846C1820021017561880183018841834D
:10E1900005A8FEF7CBFF08B010BD03AA694607200B
:10E1A00001F016FE0028DCD1F5E7000070B504464A
:10E1B000FFF746FF0546204601F067FC0549044687
:10E1C0008D4204D0002C02D1284601F0E7FF204602
:10E1D00070BD0000FFFF000010B5FFF753FDFF28E2
:10E1E00004D00C2148430249085A10BD014810BD13
:10E1F00028260020FFFF00003EB5044601F012FE75
:10E2000010E0019920464631FFF77EFF002806D135
:10E21000019920462A31FFF777FF002802D068468F
:10E2200000893EBD6A4602A9072001F0D1FD002801
:10E23000E7D101483EBD0000FFFF0000F8B50F46E2
:10E24000002804D00120FFF7B1F90120F8BD397989
:10E2500000290AD00026254D01290BD0244C022983
:10E2600020681FD003293BD125E001F047FA0121A6
:10E27000397133E000200101695C02290BD0401C98
:10E2800080B20228F7D30220FFF7AAF90120FFF796
:10E290008DF91848F8BD04016019406801F020FAB2
:10E2A0002E551BE00146002301221348FFF7D0F949
:10E2B0000221A18011E001F013FA0C4923682031FA
:10E2C00049880A01094951184D6825604B60A388A7
:10E2D0000B810221A18005498E543E710028D9D0BE
:10E2E0000120FFF763F90E20F8BD0000282C002064
:10E2F000342100201D1D000054210020F8B51E4CC3
:10E300002078002836D0E068002600280CD00025B0
:10E31000607800282ED1684652DF052806D00028F4
:10E3200006D0FDF7E9FA0BE00125F1E7012607E049
:10E33000009800F097FD2169002901D000988847D6
:10E34000002D13D16078002814D1608869460880B8
:10E35000A06861DF052804D0002804D0FDF7CCFABE
:10E3600004E0012502E0E168A0688847002ECFD0D4
:10E37000002DE5D0F8BD000040210020F0B50C468E
:10E380000D462035074685B06978287801910090C0
:10E3900022462632D11E3846E36903F08AFD002862
:10E3A00019D1E87800281ED1207B022801D003284B
:10E3B00019D12269E169914215D16269E261E37B79
:10E3C0002B70217E8906C90F6970032805D0394654
:10E3D000204603F009FD05B0F0BD00913946204606
:10E3E00003F0ECFDF7E7E0686269216901AB07C360
:10E3F000E878002600280CD0384600F077FE810728
:10E4000001D5012002E0400705D5022069460870C9
:10E4100001E0684606702E71207E4007DBD422683A
:10E42000684661689047D6E741880548028891426E
:10E4300004D34088814201D80120704700207047F2
:10E44000702000201048018CC9B2012917D1818C9D
:10E45000090714D1018D09060A0F03D1828D120616
:10E46000120F0ED0090F012903D1828D1206120F4F
:10E4700007D0032903D1808D0006000F01D00020B2
:10E480007047012070470000C00F00F00021425C7F
:10E49000002A01D001207047491C1029F7D3002021
:10E4A0007047800701D000207047012070470000AE
:10E4B00010B50448017AC90702D00078FEF728F9A0
:10E4C00010BD000018200020FFB5244D81B0287A2F
:10E4D0001F460E46084304D0039A002E04D00021A4
:10E4E00004E0052005B0F0BD1C491031019803F08F
:10E4F0001BFA0446014600220198FFF779F8002F25
:10E5000003D021460198FEF7F1FD0D2C0DD006DC5D
:10E51000002C0AD0042C16D0082C05D105E0112CB3
:10E5200005D00F48201800D003242046DAE73246F1
:10E53000E9780198FDF750FEA978039A0198FDF754
:10E540004BFE0024F1E73246E9780198FDF744FEDE
:10E55000A978039A0198FDF73FFEE6E7CC2000205A
:10E56000FECFFFFFFEB517460C00064604D020780C
:10E57000C00704D0012003E000217EDFFEBD0220A1
:10E58000694608713046FFF727FE1749054688425D
:10E5900008D001A800902B463A462146304600F0AC
:10E5A00025F806E020782146C007304603D000F069
:10E5B00081F804460BE07EDF044600200090002C2A
:10E5C00008D0002201232946304602F0FBFD002C32
:10E5D00002D006E00122F5E768460179304602F0F4
:10E5E00017FE2046FEBD0000FFFF0000FFB585B00E
:10E5F00000252E4601AA07210E9F089801F040FA37
:10E60000040009D1029D0298183540300079C607F0
:10E61000F60F01D0029D34350798204312D1002D0A
:10E6200010D0002E05D128461230FFF75FFD0028DC
:10E6300008D029462A461231059885DF0446002075
:10E64000387023E0002C01D0052C1FD106980078EB
:10E65000C0070DD003AB01220721089801F040FA52
:10E6600004000AD10721089801F038FB040004D106
:10E67000069905987EDF040008D00721089801F06C
:10E68000B3FA002802D0052800D00324002000900F
:10E690003878002801D0012300E00023002C07D0A7
:10E6A00000220899059802F08DFD204609B0F0BDC2
:10E6B0000122F6E7FEB50F46064601F0D5F90546FC
:10E6C0001848854220D001AB01220721284601F0DD
:10E6D00007FA04000AD10721284601F0FFFA0400D6
:10E6E00004D1394630467EDF040008D00721284691
:10E6F00001F07AFA002802D0052800D00324012076
:10E700000090002C0BD002E0032400200090002297
:10E7100001232946304602F055FD2046FEBD012268
:10E72000F6E70000FFFF0000F7B5114D0F46164653
:10E7300029780098FDF73EFD002812D00098FFF7D9
:10E740004BFD04460B4884420BD069780098FDF7D6
:10E7500031FD002806D033463A462146009801F0A4
:10E7600057F8FEBD324639460098FEF761FCFEBD03
:10E77000C8200020FFFF0000F1B586B00698FDF725
:10E780000DFD002821D06846FDF73EFC00246E46B2
:10E7900018E060008519A8880699FDF70BFD002890
:10E7A0000FD00B4FA888B978FDF704FD0590A88815
:10E7B000F978FDF7FFFC0146A8880123059AFFF7C9
:10E7C00083FE641C0098A042E3D807B0F0BD0000AF
:10E7D000CC200020F0B5284C2146103948688B68C1
:10E7E000227886469C46CF78667836E018235343D5
:10E7F0006168521CC918A378D2B2934200D100229A
:10E800000B78022B02D0032B27D123E003464D685F
:10E81000194603E0A94204D00B46C96900291CD05F
:10E82000F8E7002919D08B4208D1C069002805D12A
:10E83000124F0125BD600025AC4601270D68C9694E
:10E84000D961002909D00B685B190B6005E00174E0
:10E85000C06900E000210028F9D19642C6D10649DE
:10E86000624610398A604860CF70704501D001203F
:10E87000F0BD0020F0BD0000082100200010014084
:10E88000F8B52C4E044670680025009041E0002C3D
:10E8900002D02046E46920E0264818231030017891
:10E8A00042684B43491CC9B2D2180170837899421F
:10E8B00000D105701178506801292CD1017C002904
:10E8C00029D191684160D16881601169C160516945
:10E8D0008161F178002900D045604368B268164F25
:10E8E000991A0902090AB94202D28268891806E017
:10E8F000D11A09028268090A8A4202D9511A0160B2
:10E9000000E005604560012185600174C56103F088
:10E91000C3F9002CBBD10748103001784078814200
:10E92000BAD171680098814201D00120F8BD002061
:10E93000F8BD0000F8200020FFFF7F00FEB5044670
:10E940001948002684422DD02046FFF71FFA050003
:10E9500012D00B2D14D0112D10D0144828181BD014
:10E960000921684601702046FFF736FC01466846DB
:10E970004180848002950DE0022102E001260BE037
:10E980000321684601702046FFF726FC01466846D1
:10E9900041808480FEF7C4FB0548324681782046DA
:10E9A000FDF71AFCFEBD0000FFFF0000FECFFFFFD9
:10E9B00080200020FEB504460026FFF71DFA05461C
:10E9C0000C281AD004DC002D13D0042D05D127E02B
:10E9D000112D10D0134828181BD00921684601704A
:10E9E0002046FFF7F9FB0146684641808480029586
:10E9F0000DE0012102E001260BE0072168460170CD
:10EA000084802046FFF7E8FB014668464180FEF718
:10EA100087FB0548324641782046FDF7DDFBFEBD09
:10EA20000821EBE7FECFFFFF80200020F8B5054668
:10EA300000780C460026204210D10020694608705C
:10EA40006846FDF723F828780146214202D1204389
:10EA50002870012668460078FDF736F83046F8BD84
:10EA6000002398B05C4A05211846FCF767FF002890
:10EA700001D0FCF741FF594A01215948FCF748FFF2
:10EA8000002801D0FCF738FF5548564A0021001FE6
:10EA9000FCF73EFF524C0121241F0022C90360688D
:10EAA000FCF79CFF002801D0FCF726FF0121002283
:10EAB00009042068FCF792FF4B4A4C490320FDF7FC
:10EAC000D7FD002801D0FCF717FF69460020FDF7AD
:10EAD000A5FC002801D0FCF70FFF6846007802284B
:10EAE0000AD0002168460171FDF760FC6846007994
:10EAF00001F068FB3E4C03E00121F3E701F0EAFF7F
:10EB000060780128FAD91120694608730F2239A1CB
:10EB100003A87CDF002801D0FCF7EEFE002400945F
:10EB20005021684601940180A0214180FF2184800A
:10EB30009131C1807ADF002801D0FCF7DDFE02F0C0
:10EB40007DFC382101A8FCF710FB02216846017109
:10EB5000012585710621C171858225482021801DEE
:10EB600006900FA8FCF701FB08A8C577FF202D3001
:10EB70001390B42000941490224B0FAA002101A8F6
:10EB8000FDF73CF8002801D0FCF7B6FE1C216846D2
:10EB9000FCF7EBFA0520C00301900F20000402905F
:10EBA0000094032168460173C481047416480590DB
:10EBB000164806906846FDF7B5F9002801D0FCF725
:10EBC0009BFE0320FDF72AF9002801D0FCF794FEF4
:10EBD00001F080FFFCE70000A4210020211D0200BD
:10EBE0007C260200D5D30100C9C50100CD0C000070
:10EBF000E81F00204E6F726469635F54656D706C2E
:10EC00006174650029F10100EDF1010089CB01007B
:10EC100070B51446828805460E46921C2088911CC9
:10EC20004118994201D8FE2A01D90C2070BD521C0E
:10EC300032542088FF21401C80B22080315420882B
:10EC4000401C80B220808119288803F0B0FA218806
:10EC5000401880B22080AA88002A09D0A96800291B
:10EC600008D08019FCF768FA2088A988401820800D
:10EC7000002070BD072070BDF8B50F46017814461E
:10EC80000546012902D16878002806D02088821C18
:10EC90009A422DD8012902D006E00720F8BD6978F4
:10ECA0004118891C994223D8181A801E86B26846DA
:10ECB00006802188B81C081869467DDF0028EDD140
:10ECC0002878022805D169460988B14201D809216E
:10ECD0000AE00821012805D16878B04202D86A46C6
:10ECE000108001E06846068068460088FE2801D949
:10ECF0000C20F8BD2288401CB8542088401C80B2EB
:10ED00002080395420886946401C2080098840189A
:10ED100020800020F8BD0000F8B5FF240F4605460E
:10ED200000291FD0104EB5421CD010480122417856
:10ED30002846FDF751FA2846FEF7A4FF0446FF28AF
:10ED400004D1FEF7BBFF0446FF280BD00C2148433B
:10ED500007490246401845808E52001D0722394659
:10ED6000FCF7EAF92046F8BDFFFF000098200020DC
:10ED70002826002070B50B4D0E46A84201D1002078
:10ED800000E0401C84B209E02146304601F01EFC40
:10ED9000002801D0204670BD641CA4B2FF2CF3D91A
:10EDA000284670BDFFFF0000012189074018006858
:10EDB000002800D00120704701220021920780180E
:10EDC0000160704700280FD00849094A096800BF50
:10EDD00000BF00BF00BF00BF00BF00BF00BF914227
:10EDE00000D000BF401EF2D1704700003820002044
:10EDF0000024F40010B50C4C2078002801D08520A8
:10EE000010BD0020A06060602061E060032100F080
:10EE10002FF802F0DFFE0121002801D103488161B3
:10EE20002170002010BD0000542A00200005004081
:10EE300038B50020694608706846FCF727FE084C84
:10EE40002078002801D1FFF7D5FFE068401CE06082
:10EE50000120A07068460078FCF736FE38BD00003F
:10EE6000542A002010B5002801D1FDF7E5FD10BDA2
:10EE70008207D30EFF229A408907090E10B59940E8
:10EE800000280BDA03071B0F083B9C080C4BA4005F
:10EE9000E318DC6994430C43DC6107E08408094B08
:10EEA000A400E418236893430B432360C106C90EF2
:10EEB00001208840044908600449086010BD000032
:10EEC00000ED00E000E400E080E200E000E100E0AE
:10EED000F3B581B00F46019801F0BAF9012400287A
:10EEE0001D4E019817D0FDF765FD80192030007F79
:10EEF0008009032802D001280BD005E017480069DB
:10EF000001998C40204204D00321019800F0CCF8F4
:10EF1000FEBD0221F9E701F0A7F90028F8D0019819
:10EF2000FDF748FD05468100C81D0D4AF9308918D6
:10EF30000A6980B222430A6100F0C6F8002FE7D0C8
:10EF40000198FDF737FD800030580028E0D00548D3
:10EF5000AC404460FEBD0000682A0020000500505F
:10EF60000065004000630040FEB515460E460446AD
:10EF7000002701F063F9002801D0082738E0F27873
:10EF800029462046FDF7F2FC0546401C2FD0B078FC
:10EF9000002807D01748A1000918086802229043EA
:10EFA000086007E000217378204600910A4601912D
:10EFB00000F068F8F078002810D00F48AA00101868
:10EFC000317802690D4B1A400261E206D20C8907C2
:10EFD000890B0A4301690A43026109E00848327853
:10EFE00040192030017F92011143017700E004278E
:10EFF0003846FEBD0007005000650040FFE0FCFF02
:10F00000682A002003490969C140C807C00F00D021
:10F01000012070470005005070B5144D2879002874
:10F0200001D0082070BD114900204039421E0B1844
:10F030002033401CC0B21A702028F8D30024204688
:10F04000FDF786FC641CE4B2082CF8D303210620EB
:10F05000FFF70EFFFF207D3000F036F80120044955
:10F06000C007486001202871002070BDA82A002038
:10F070000063004002480079002800D0012070475A
:10F08000A82A002030B552000A439900039C0A4385
:10F090002102049D0A4329040A43024980004018C2
:10F0A000026030BD00070050820006481018026858
:10F0B00003231B049A430260026809040A430260A6
:10F0C000704700000007005002494018002101600D
:10F0D00070470000006000400349401800680128A4
:10F0E00000D000207047000000600040132189011B
:10F0F00041184868486070474058002800D00120F7
:10F1000070470921C90141180868086070474058D4
:10F11000002800D0012070470322120280184068A6
:10F12000084000D00120704710B5002809D00328FE
:10F1300006D10220FDF78EFA002801D0FCF7DCFB97
:10F1400010BD02F095FA10BD10B50446008888B0D5
:10F150003A2821D009DC022824D0102811D0112807
:10F160000DD10020FDF776FA19E051281ED0552860
:10F1700005D1A088132176DF11E0FCF7BDFB08B0B4
:10F1800010BD0720FDF766FA002801D0FCF7B4FB9C
:10F190001549A0888880F2E7A088132176DF00282F
:10F1A000EBD1ECE7A088002167DFF8E71022A11D72
:10F1B00004A8FBF7C1FF6846017C0029DFD0007E70
:10F1C000042803D0062801D00528D8D1022908D068
:10F1D000012069460870FF2083308880A088A8DF5E
:10F1E000DDE70220F5E70000E81F002010B50078F9
:10F1F000002807D104483B21808876DF002801D011
:10F20000FCF77AFB10BD0000E81F002008780028FA
:10F2100002D102490120887070470000E81F0020D9
:10F2200010B5134A00215170017A012911D0022929
:10F230000ED18189491C8181C189491C89B2C18152
:10F24000028A914204D1002101F0F2FF01F050FC4A
:10F2500010BD838AC28A991AFF2901DC89B201E0B4
:10F26000FF210131511889B2C1829942EBD010BD02
:10F270003C210020F7B51C4D0E4601466A6F002068
:10F2800082B0032A2DD82C4678340827636CBF1B24
:10F29000BB4226D8286F10188007800F1C225043CD
:10F2A0004019FBF749FF686F401C6867002E17D0B4
:10F2B000216C606C40184007800E001900230090FC
:10F2C00009E00498D9000A18009806CA06C06846E2
:10F2D000FDF788FB5B1CB342F3D3606C801960645C
:10F2E000012005B0F0BD0000682B002070B586B08D
:10F2F0000D4604002FD0002D2DD01848FEF7EEF853
:10F30000286820600020164BC043E08010330FCBEC
:10F310006E460FC6214620310E46684663DF002840
:10F3200001D0FCF7E9FA3178684681740D49018211
:10F33000221D04A90120A0DF002801D0FCF7DCFA7F
:10F3400029462046FDF758FC002801D0FCF7D4FAE6
:10F35000002006B070BD0E20FBE700004DD6010076
:10F3600084260200CDAB000070B586B00D460400C7
:10F370002CD0002D2AD0286820600020144BC043D8
:10F38000E08020330FCB6E460FC6214620310E465B
:10F39000684663DF002801D0FCF7AEFA3178684692
:10F3A00081740C490182221D04A90120A0DF0028DC
:10F3B00001D0FCF7A1FA29462046FDF71DFC0028E4
:10F3C00001D0FCF799FA002006B070BD0E20FBE7D3
:10F3D00084260200EFCD000070B586B00D46040013
:10F3E0002DD0002D2BD0286820600020154BC04365
:10F3F000E08030330FCB6E460FC6214620310E46DB
:10F40000684663DF002801D0FCF776FA3178684659
:10F410008174032109030182221D04A90120A0DFB8
:10F42000002801D0FCF768FA29462046FDF7E4FBE6
:10F43000002801D0FCF760FA002006B070BD0E2055
:10F44000FBE700008426020070B586B00D4604007C
:10F450002DD0002D2BD0286820600020154BC043F4
:10F46000E08040330FCB6E460FC6214620310E465A
:10F47000684663DF002801D0FCF73EFA3178684621
:10F480008174012189030182221D04A90120A0DFCA
:10F49000002801D0FCF730FA29462046FDF7ACFBE6
:10F4A000002801D0FCF728FA002006B070BD0E201D
:10F4B000FBE700008426020070B586B00D4604000C
:10F4C0002DD0002D2BD0286820600020154BC04384
:10F4D000E08050330FCB6E460FC6214620310E46DA
:10F4E000684663DF002801D0FCF706FA31786846E9
:10F4F0008174052109030182221D04A90120A0DFD6
:10F50000002801D0FCF7F8F929462046FDF774FBE6
:10F51000002801D0FCF7F0F9002006B070BD0E20E5
:10F52000FBE700008426020070B586B00D4604009B
:10F530002DD0002D2BD0286820600020154BC04313
:10F54000E08060330FCB6E460FC6214620310E4659
:10F55000684663DF002801D0FCF7CEF931786846B1
:10F560008174032149030182221D04A90120A0DF27
:10F57000002801D0FCF7C0F929462046FDF73CFBE6
:10F58000002801D0FCF7B8F9002006B070BD0E20AD
:10F59000FBE700008426020070B586B00D4604002B
:10F5A0002DD0002D2BD0286820600020154BC043A3
:10F5B000E08070330FCB6E460FC6214620310E46D9
:10F5C000684663DF002801D0FCF796F93178684679
:10F5D0008174072109030182221D04A90120A0DFF3
:10F5E000002801D0FCF788F929462046FDF704FBE6
:10F5F000002801D0FCF780F9002006B070BD0E2075
:10F60000FBE700008426020070B586B00D460400BA
:10F610002CD0002D2AD0286820600020C043144B35
:10F62000E0800FCB6E460FC6214620310E4668465D
:10F6300063DF002801D0FCF75FF9317868468174F8
:10F640000121C9030182221D04A90120A0DF002895
:10F6500001D0FCF751F929462046FDF7CDFA0028E4
:10F6600001D0FCF749F9002006B070BD0E20FBE781
:10F67000042702000389CA1C9A1802814289511A80
:10F68000C91E418170470000F7B50D46012189026E
:10F69000471804460026083402202880BC4217D2AE
:10F6A0002068401C14D02046FEF732FC00280DD004
:10F6B0000A48A1684268914200D94160608881008F
:10F6C0000C1929880C340818C01CE6E70126F5E758
:10F6D0000298002800D00670FEBD00002421002002
:10F6E00008B50021009101460223024A0248FEF7B4
:10F6F00055F808BD002802005421002008B500205C
:10F700000090044802230168034A0448FEF746F8C3
:10F7100008BD000034210020F827020054210020F9
:10F72000F8B50025354F2C462E4600953448B102D9
:10F73000006840180168B94205D1324A4168891809
:10F7400030D001290CD000218A0082580346521C77
:10F7500036D003202C4922018854641CA4B21BE03B
:10F76000009900290CD0284B022221015A54274A23
:10F770001368254A891802224B60641C0A81A4B2CE
:10F78000224900220860091DFFF77EFF1F4880887C
:10F79000022831D008200543761CB6B2032EC5D30B
:10F7A000E8B2F8BD1849002322018B5451180A46CB
:10F7B00048600E320831FFF767FF02200543CCE7AF
:10F7C000491CFF29C0D911490A68002A0CD00E4AE9
:10F7D00002212301D1549A1850600B481181203026
:10F7E0004480641CA4B204E002200B6088800120E5
:10F7F000009001200543CFE70420CCE7DEC0ADDE5A
:10F800005421002002FEE10E282C0020342100208B
:10F8100070B5194D0E4604462C3523CD86B00295A1
:10F82000009001916846448082808371134D204688
:10F83000A978FCF7BFFC002803D03046FEF7B6FCE1
:10F840000FE00721304600F0CFF9002809D0052845
:10F8500007D1092269460A73CC81049003A8FDF7F9
:10F8600087FC002229782046FCF7B6FC6846FDF7A5
:10F870007FFC06B070BD0000A4270200C820002055
:10F88000F0B585B00746FCF789FC002814D068461F
:10F89000FCF7BAFB00246D460BE060004619B08807
:10F8A0003946FCF787FC002802D0B08802F0DCF86B
:10F8B000641C0098A042F0D805B0F0BD70B5054DAD
:10F8C00006460024A000295830468847641C052CB1
:10F8D000F8D370BD802702003EB50F4D00241420E0
:10F8E0006043401902F070FD641C082CF7D3082116
:10F8F000502001910A490124C2000290074B009454
:10F90000881800F0ECFC002801D003203EBD03481D
:10F91000447000203EBD000028290020B0200020B7
:10F920009826002010B500F04BFA10BD10B500F07D
:10F930004BFA10BDF0B5002585B0009501950295F4
:10F9400003950446418868464180217901712E461D
:10F950002179608802F012FD22780421404F1300C3
:10F96000FBF7E4FD0A0606361C1C383E43484B4DA7
:10F9700000280DD0417CC9070AD002F037FD684647
:10F9800006702078012800D00020694608722AE01D
:10F99000012069460870A068029024E000280ED07B
:10F9A0008268A3689A420AD1427CD30707D07B6859
:10F9B00052085B1C52000A437B6042741FE0022025
:10F9C00069460870E06803900DE0FFF777FF16E0E6
:10F9D000032006E068460170E06802906846F4E79C
:10F9E0000520694608700846EFE70620694608705A
:10F9F000E068D1E701250720F3E7E0680290786826
:10FA0000002824D0174E0024142027464743B81955
:10FA1000417C4A0703D48907C90F29421CD0817849
:10FA2000F05B00F0F7F8002816D014214C43325B4D
:10FA300069464A80B9198A7869460A71042808D04B
:10FA400009216A46117002906846FFF737FF05B03A
:10FA5000F0BD08200870F7E7641C082CD4D3F6E743
:10FA6000B02000202829002010B500F071FA10BD48
:10FA700008B513889B0000936B4600F0DBF908BDC6
:10FA800010B5002300F0D6F910BD38B505460024A6
:10FA900020460AE08178284600F0A6F8002802D027
:10FAA000052800D003240098401C00906946284691
:10FAB00002F076FC0028EDD1002C07D1284600F09A
:10FAC0004FFA002802D0072802D00324204638BD70
:10FAD0000724FBE710B51346002200F0E3F910BD40
:10FAE000FFB581B0049815460E46002804D0072EB5
:10FAF00005D0082E19D102E00E2005B0F0BD002D72
:10FB000013D0082D11D8019800F035FA00280CD038
:10FB1000002000903146019802F030FC040026D00D
:10FB2000E068A84212D2002709E00720E5E7207C20
:10FB3000C019C1B22A4800F00BFC7F1CFFB2E0687C
:10FB4000B842F4D8204602F03FFC10E0A84217D992
:10FB5000EFB207E0207CC019C1B2214800F0F8FBE9
:10FB60007F1CFFB2E068B842F4D8002C08D1FF2116
:10FB70001C48019F02F002FC040005D00780A6701B
:10FB8000207CFF2802D00AE01120B6E7294614485D
:10FB900000F076FB2074FF2813D001200090E56070
:10FBA000217C0F4800F0BDFB02000ED0ABB2314605
:10FBB000049800F071FA009800280FD0082E06D0A3
:10FBC0000CE0204602F000FCDEE7032095E70498F5
:10FBD0000499008849688000801F888000208CE795
:10FBE00018290020FFFF000070B5002402F0C6FBBA
:10FBF00005000CD06868002804D000F0D8F9040093
:10FC000000D00324284602F0F1FB204670BD0520F9
:10FC100070BD00007CB50D460646072903D0082DAF
:10FC200001D007207CBD00200090019068468570BF
:10FC30002946304602F0A2FB040004D0607CC007D5
:10FC400003D000207CBD05207CBD217C214800F034
:10FC500068FB020025D029466846E36800F0AFF94A
:10FC6000684602F079FB23460833694630466268ED
:10FC700000F018F90246607C1749430704D5830752
:10FC800002D54B685B1E4B60FB25FD23002A0AD082
:10FC9000112A0DD0042A14D0072A00D003221046BE
:10FCA0007CBD03207CBD01210843284018400EE0A4
:10FCB0004A68521C4A6004210843184060740022BC
:10FCC000EDE74B6828405B1C4B60022108436074E1
:10FCD000E5E7000018290020B02000207CB50D4683
:10FCE000072903D0082D01D007207CBD002602F093
:10FCF00045FB040003D06068002802D01BE005200B
:10FD00007CBD217C0E4800F00CFB024600200090D8
:10FD1000019068468570002A0FD02946E36800F0FC
:10FD20004EF9684602F018FB211D684600F027F9DD
:10FD30000646092801D030467CBD03207CBD00006A
:10FD40001829002001490968084700007C270200A3
:10FD500070B588B01748FDF7C1FB002802D003201A
:10FD600008B070BDFDF7F0FA002801D00420F7E7D5
:10FD700000F0E8F90020104C0290E61F03900DE01F
:10FD8000694604A8FDF76EFB00988088801B85B249
:10FD900004A8FDF725FB284600F088F902AA04A96B
:10FDA0002046FDF744FB0028EAD0044901200870F2
:10FDB0000020D5E799D1010007C00000A420002051
:10FDC00010B500F09DF910BD10B500F0A1F910BDFF
:10FDD00070B505460320800386B014460E462818E9
:10FDE00080B20F4A6946FDF722FB002805D103A91E
:10FDF0006846FDF737FB002802D0002006B070BD32
:10FE0000A5700398408820800498606003988088DB
:10FE1000FDF7BAFB30806846FDF7E2FA0120EDE716
:10FE2000A820002002480021416081607047000046
:10FE3000A4200020F0B587B01D46144607460E46A4
:10FE4000FF280CD8084600F017F9002807D003AAAD
:10FE50003146384600F0F8F8002809D102E00720C2
:10FE600007B0F0BD01A903A8FDF7FCFA002801D0F6
:10FE70000520F5E7A6700198002D408820800AD063
:10FE800082002868904204D802996068FBF754F910
:10FE900003E00420E4E70298606003A8FDF7A0FAFD
:10FEA0000020DDE77FB588B01D460C460646FF28DA
:10FEB00031D8A07800F0E0F800282CD060680690D7
:10FEC000208869468883304600F076F969460880C4
:10FED000A0780321890340186946488006A801904C
:10FEE00001200881A17803AA304600F0ADF805286A
:10FEF00013D00AA8FDF71EFB694603A8FDF7D4FA44
:10FF0000002818D0072820D008281CD00E281AD086
:10FF100003200CB070BD0720FBE70A98002805D02D
:10FF20000AAA694603A8FDF7CFFAE9E7694603A8DC
:10FF3000FDF7C4FAE4E7002D03D0294603A8FDF736
:10FF400086FA0020E5E71120E3E70420E1E700005E
:10FF500010B5024800F0AAF810BD0000FFFF000035
:10FF600010B5FF2801D9072010BD00F0A7F800F058
:10FF70002BF8002010BD10B500F0F8F810BD70B5DA
:10FF800004460D46807800F077F800280BD02188D1
:10FF90002846FDF7B5FA002804D0072805D009281F
:10FFA00000D0032070BD072070BD042070BD01B5D6
:10FFB0006846FDF7BFFA002800D0032008BD10B541
:10FFC0009BB200F069F810BDF0B589B000261C4F57
:10FFD00004963846059600F093F80446194D06E05D
:10FFE000204600F07FF8204600F08AF80446BC4224
:10FFF00022D000F0E1F804AA06A9FDF720FA0A28A9
:020000040002F8
:10000000EED0A878002817D10320800301272018FC
:10001000AF7080B2FDF74EF908280FD000280BD042
:10002000AE70092269460A704C80FF220A71039063
:1000300002966846FFF786FE09B0F0BD6F70FBE7D9
:10004000FFFF0000A42000207CB5054616460C46A4
:10005000084600F011F80020032100908903019068
:100060006818611880B289B26B463246FDF7D8F93C
:10007000002800D005207CBD07280BD0012809D01E
:10008000082807D0052805D0062803D0042801D069
:10009000002070470120704710B5502463439BB285
:1000A0008170DB1C99084260018010BD10B50249C7
:1000B000FCF7A4FC10BD0000C829002010B50446C0
:1000C0000648844207D006492046FCF797FCA04228
:1000D00001D1012010BD002010BD0000FFFF000075
:1000E000E829002010B50446044900F0EFFE03495A
:1000F0002046203100F0EAFE10BD0000C829002093
:1001000010B50249FEF736FE10BD0000E8290020B8
:1001100070B50A49FEF72EFE0446094D08E000F0CE
:1001200031F8002807D005492046FEF723FE044693
:10013000AC42F4D170BD204670BD0000C82900203B
:10014000FFFF000010B508484021FBF70EF8FF2420
:1001500001342146044800F009FA034821462030C2
:1001600000F004FA10BD0000C829002010B5FF28D7
:1001700004D80146024800F029FA10BD002010BD45
:10018000C829002010B5FF2804D80146024800F015
:100190001DFA10BD002010BDE829002010B50C4646
:1001A000FDF770FDFF2803D00C21484301490C5294
:1001B00010BD00002826002003218903401880B2CA
:1001C000704700001CB5044600F08EF9002801D0ED
:1001D000FBF792FB002C05D000F094FB002801D027
:1001E000FBF78AFB0020009001906846007801220E
:1001F00010438121084030304106490E68460170A5
:100200000721417010218170C178022311431943E5
:10021000C170017911431943017100F0A9FB002855
:1002200001D0FBF769FB044800F08AFB002801D0ED
:10023000FBF762FB1CBD00009D0302000349081888
:1002400020214156C817401C70470000682A002032
:100250000449081820214156042901DB0120704778
:1002600000207047682A00200449081820214156C0
:10027000042901D20120704700207047682A00201D
:10028000F8B50F46060028D03068002825D07068E1
:10029000002822D0FF2400251CE02946706800F0C9
:1002A0006DF9002808D0FF2C00D12C46281B401CDB
:1002B000B8420DD12046F8BDFF2C06D108E02146FA
:1002C000304600F045F8641CE4B2AC42F7D3FF249A
:1002D0006D1CEDB2B068A842DFD8FF20F8BDF8B5BC
:1002E0000400069E089D079819D0002917D0002BFE
:1002F00015D007466F43974211D8C21DD208B242AB
:100300000DD800280BD0002D09D0E5606360216076
:10031000A06081B2184600F029F90020F8BD07203E
:10032000F8BD70B504000D4610D0206800280DD02F
:10033000606800280AD0FF2D08D000F047F9002897
:1003400004D0E06821686843081870BD002070BDC3
:1003500070B504000D460FD0206800280CD06068EE
:10036000002809D0FF2D07D000F030F9002803D075
:100370002946606800F036F970BD10B501F096F9B5
:1003800010BD000010B5044A1278002A02D001F016
:10039000C3F910BD082010BDB820002008B50178B1
:1003A0000B00FBF7C3F80F091209131E2532122C9C
:1003B00012322E3212341200808800F0EBF911282C
:1003C00003D0002801D0FBF797FA08BD4189114AF4
:1003D0008918FAD140880121FFF7D4FF0828F0D10D
:1003E00008BD0021009140886946FFF7C6FF08BD9F
:1003F000FCF786FF0E28FAD00828F8D0E1E70020A5
:10040000E1E70320FBF70AFDDBE78068D9E700F0AE
:10041000A3F808BDFAEFFFFF70B586B004461421BB
:100420006846FAF7A2FE608869468880FDF708FEF4
:1004300069464880267800200822072105253300D8
:10044000FBF774F80A06060B0D0F1416281A1D2563
:100450006B46197058721A7219E00D2009E00E20CF
:1004600007E06A4611705072157210E00F2000E02C
:100470001020694608700AE06846057007E006210A
:1004800068460170A0680290A1886846418068466D
:10049000FCF75AFE06B070BD10B50446007886B071
:1004A00000281AD0012816D10E4960880122497906
:1004B000FBF792FE14216846FAF757FE60886946FA
:1004C00048806088FDF788FE6946888000200870B3
:1004D0006846FCF739FE06B010BDE08800F04EF922
:1004E000F9E70000B820002070B5FFF731FC0028C4
:1004F0002ED1FFF7F1F900282AD101F0E5F8002804
:1005000026D101F0F3F9002822D1FDF769FB00287C
:100510001ED1FDF723FC00281AD1FDF7A7FD002806
:1005200016D10C4C401EE08000251820A5602071DB
:100530006071FBF71BFE2071182809D0FBF716FE2F
:100540006071182804D0657001202070002070BDF3
:10055000032070BDB820002010B5034800780028A3
:1005600001D0FDF761FB10BDB820002010B50028B8
:1005700003D0C91DC908FAF7F8FD10BD10B5002851
:1005800009D04B075B0F01229A40C908D2B2081864
:100590001146FEF74BFA10BDF8B50D46060013D014
:1005A000002401270EE06107490F38468840C1B298
:1005B000E0088019FEF73AFA002801D02046F8BD7D
:1005C000641CA4B2AC42EED32846F8BD002807D084
:1005D000CA08805C4A07520F01219140084000D0B0
:1005E00001207047F8B504464805050E4907490F34
:1005F00001208840C6B2002C0ED0605D30420BD086
:10060000002168460170FBF741FA605DB043605518
:1006100068460078FBF758FAF8BD000010B50446AC
:1006200006480078002808D02046FDF7B5FC204693
:1006300001F032F82046FDF711FA10BDB820002075
:10064000F0B58BB0044614216846FAF78EFD608839
:1006500069468880FDF7F4FC6946488027780120C8
:10066000082207210026434D3B00FAF75FFF0A06E8
:100670000E20353B435F80787A806A46117021797D
:1006800011725672039690726EE06A46117021796B
:1006900011725672A16803919072A868002863D005
:1006A000A168814260D1AE609088E88012E068461F
:1006B0000270217901724672A0680390E06804908C
:1006C000A868002850D0A16881424DD1AE60E8688A
:1006D000401EE860039647E06A4611702179117266
:1006E0005072F7E769460A7022790A724872A06868
:1006F000049039E0092069460870A878002833D0B2
:100700001D4C2046FFF712F9A0422DD12046FFF7DD
:1007100009F9A04228D1AE70142105A8FAF725FDE9
:100720000B21684601750483C48214E00A206946DF
:100730000870A0680290A878002815D0AE70142127
:1007400005A8FAF712FD0C20694608750A480883C7
:10075000C882A068079005A8FCF7F6FC04E0052015
:1007600000E00620694608706846FCF7EDFC0BB017
:10077000F0BD0000B8200020FFFF000010B50449C4
:100780000978002902D0FDF711FD10BD082010BD29
:10079000B8200020F0B52D4C0646207887B0002800
:1007A00008D02B498868C9680691059060780028B0
:1007B00003D00FE0082007B0F0BD244900230C311E
:1007C0001A46881F00F046F8002801D0052801D1FC
:1007D000012060706078A168401E084301D0112597
:1007E00031E0E0880027864219D1E068002816D061
:1007F000002514216846FAF7B8FC07216846017005
:100800003046FDF71DFC0146684641808680062182
:100810000172477203978772FCF796FC13E0E06859
:100820000A4A401CE060083205A93046FFF752F939
:10083000050008D0A760E068401EE060112D02D0DE
:10084000042D00D003252846B5E70000B82000207D
:1008500094270200FFB5284885B00078002816D0FC
:10086000264E3046FFF762F800900020039024489F
:1008700001AA0068019003A8029006210098FFF7E2
:10088000F7F800256C1E3746072803D016E008202D
:1008900009B0F0BD0520FBE700200390A84201D37A
:1008A000009F0546A04201D2009E04460098FFF733
:1008B0003DF801AA06210090FFF7DAF8002817D0CA
:1008C0000528E9D00D490098884213D105990020E8
:1008D000002900D00F800699002900D00D600799EB
:1008E000002900D00E8008990029D1D00C60CFE7F4
:1008F0000398D3E70320CBE7B8200020FFFF0000D8
:100900009427020070B50C480178002904D0012119
:100910000A4D8170284608E0082070BDFFF72EFFC1
:10092000002801D0032070BD2046FEF7FFFF0446DB
:10093000A842F3D1002070BDB8200020FFFF0000C6
:1009400010B5094A1178002904D0D178032903D3BE
:10095000042010BD082010BD8B00044C491CE05041
:10096000D170002010BD0000B8200020082A00200F
:1009700010B504490978002902D000F0EFFE10BD3F
:10098000082010BDB8200020F0B585B0044601262F
:1009900014216846FAF7E9FB6088694648804B4FA6
:1009A0002078002539797A790300FAF7BFFD0D82A6
:1009B0008D081C30424C5159646A6C7E82000120C3
:1009C0006A4610702079002801D0012200E0002240
:1009D000012806D000256088FBF7FEFB60882A46C8
:1009E00011E00125F7E702206A46107020790028FF
:1009F00001D0012000E00220107260880122FBF784
:100A0000EBFB227960887979FBF7E6FB52E0032063
:100A10006946087060881146FBF7CCFB002801D0BE
:100A2000012100E0022168460172A1790173A188C9
:100A300039E06088FBF7BEFB002845D102206946FB
:100A400008700D7236E00321684601700572ECE70C
:100A5000072069460870A2888A8008724D7230E0CB
:100A6000082168460170A1888180072101724572C2
:100A7000A068049025E0062069460870606802902E
:100A800018E0052012E003206946087060881146CE
:100A9000FBF790FB002801D0012100E0022168460D
:100AA00001720B490573418104E004206946087016
:100AB00000E000266088FDF78FFB69468880002EE5
:100AC00002D06846FCF740FB05B0F0BDB82000201E
