:020000040001F9
:10B0000000330020D5B00100EFB00100F1B0010025
:10B010000000000000000000000000000000000030
:10B02000000000000000000000000000F3B001007C
:10B030000000000000000000F5B00100F7B00100C2
:10B04000B5B30100F9B00100F1B40100F9B001009D
:10B05000F9B001000000000019B20100F9B00100D0
:10B06000F9B00100F9B00100F9B00100F9B0010038
:10B07000F9B00100F9B00100F9B00100F9B0010028
:10B08000F9B0010009B40100F9B00100F9B0010004
:10B0900029B40100F9B0010031B40100F9B0010098
:10B0A000F9B00100F9B0010000000000000000004C
:10B0B0000000000000000000000000000000000090
:10B0C0000348854600F06AF80048004749E6010059
:10B0D000003300200321094802680A43026008483F
:10B0E00002680A4302600748804707480047FEE7B6
:10B0F000FEE7FEE7FEE7FEE7FEE70000240500406E
:10B100005405004051B40100C1B0010030B50B46F8
:10B11000014600202022012409E00D46D5409D4231
:10B1200005D31D469540491B2546954040191546B7
:10B13000521E002DF1DC30BD03460B439B0703D0AC
:10B1400009E008C9121F08C0042AFAD203E00B78EC
:10B15000491C0370401C521EF9D27047D2B201E064
:10B160000270401C491EFBD270470022F6E710B562
:10B1700013460A4604461946FFF7F0FF204610BD65
:10B1800030B504460020034600E05B1C934203D226
:10B19000E05CCD5C401BF8D030BD0000064C0125C2
:10B1A000064E05E02046E36807C82B439847103455
:10B1B000B442F7D3FFF788FF441C0200641C02006E
:10B1C00070B58C180578401C6B075B0F01D10378B4
:10B1D000401C2A1106D10278401C03E00678401C6E
:10B1E0000E70491C5B1EF9D12B0705D40023521E9B
:10B1F0000DD40B70491CFAE70378401CCB1A921C43
:10B2000003E01D785B1C0D70491C521EF9D5A1424C
:10B21000D8D3002070BD0000F0B50025FF2687B010
:10B22000013601242F460395304603F04DFD0028DA
:10B2300007D04A484068204203D0304603F03CFD26
:10B240002543361D64007F1CB6B2042FECD3FF24C7
:10B250007D34204603F038FD002807D0204603F057
:10B260002BFD600705433E48006903903D4C2807CD
:10B2700015D001270026384628420CD03A48B200A3
:10B28000111808690969C004C00E8903A258890F02
:10B29000002A00D090477F00761C042EEBD3002DAF
:10B2A00059DA00200290401E4FE0A1194031087881
:10B2B0008506AD0E42B2521C3BD00121A94000913F
:10B2C000059A114235D080090190284601F0ECFA28
:10B2D000800020580490002804D001980099032889
:10B2E00004D006E00198032823D10099029808436E
:10B2F00002901E4AA80080180068039A8003800FFD
:10B30000114202D0022802D013E0032811D1019982
:10B31000032907D102281CD00221284603F0BCFCD7
:10B320007F1CFFB20498002803D0049A2846019994
:10B330009047761C042EB8D3002F0CD00848006923
:10B340000399884207D00390029800273E46059053
:10B35000ABE70321E1E707B0F0BD00000063004068
:10B3600000050050F4280020006500400007005050
:10B370008307FF22DB0E9A408907090E99400028B7
:10B380000BDA0007000F0838830808489B001B18D9
:10B39000D86990430843D8617047830804489B00EC
:10B3A0001B181868904308431860704700ED00E0D0
:10B3B00000E400E0F8B5FF270137384603F0ECFA67
:10B3C00001240F4D0F4E002808D0384603F0ECFA48
:10B3D0000120A8607470002001F0A8FAFF2705374B
:10B3E000384603F0D9FA002808D0384603F0DCFAD2
:10B3F0000220A860B470012001F098FAF8BD0000A6
:10B4000000030040E028002010B506490020086035
:10B4100048608860C860034940390860486006F0A9
:10B420003DF810BD4011014010B505F097FF10BD6B
:10B4300010B506484068002805D08047002801D094
:10B4400000F046FA10BD02F0A3FD10BD1821002047
:10B4500010B502F0EBFD002805D01F491D484860DB
:10B46000C8131E4988611E48018CC9B201290BD13D
:10B47000828C120708D1028D1206120F042A03D102
:10B48000828D1206120F0AD0012921D1818C090761
:10B490001ED1018D0906090F0A2904D007E0114ABF
:10B4A00001219160F5E7828D1206120F05D00D295A
:10B4B0000ED1808D0006000F0AD10B4801680129CA
:10B4C00004D00A49016001680129FCD1C021416111
:10B4D00010BD0000DFFF07C000050040006C004009
:10B4E000C00F00F00006004000EC0640759300001D
:10B4F00010B50249024806F02CF810BD3C29002086
:10B500000020004030B47446641E2578641CAB42B1
:10B5100000D21D46635D5B00E31830BC184702E0B3
:10B5200008C8121F08C1002AFAD1704770470020CE
:10B5300001E001C1121F002AFBD17047202804DA64
:10B54000012181400348014201D0012070470020C1
:10B5500070470000FC06FFBC10B500280CD0002985
:10B560000AD002780B789A4206D10622491C401C68
:10B57000FFF706FE002801D0002010BD012010BDFD
:10B58000F7B584B006460025178815802030029054
:10B59000407B1446002806D03A462146059800F024
:10B5A00035FE050009D1B078002823D005988646DD
:10B5B0002088001DB84202D90C2007B0F0BD6846B3
:10B5C00079DF0028F9D12188032072465054208861
:10B5D0001921401C80B22080115420887146401CE3
:10B5E00080B2208041186846008806F044F821881F
:10B5F00040182080F078002817D0218803230A46BD
:10B60000F356C91C0598B942D6D802218154218825
:10B610000122491C89B2218042542188491C89B2E7
:10B62000218043542088401C20807068002817D057
:10B6300021880023C3560A46C91C0598B942BBD8C5
:10B640000221815421880A22491C89B22180425456
:10B650002188491C89B2218043542088401C2080C5
:10B66000308900280AD00094304601970622022132
:10B670000830059B06F058F805009ED1308A002856
:10B680000AD0009430460197072203211030059B11
:10B6900006F04AF8050090D1308B00280AD00094BB
:10B6A00030460197152214211830059B06F03CF80E
:10B6B000050082D1306A002806D03B462246059913
:10B6C00001F09CF90500D8D1706A002806D03B46ED
:10B6D0002246059903F094F80500CED10298007B2C
:10B6E000002807D03B4622463046059905F0CEFAA1
:10B6F0000500C2D13078002807D03B4622463046AC
:10B70000059903F0B1F80500B7D1284655E70000C8
:10B71000174A0021535C002B01D0012203E0491C91
:10B720000629F7D300221349012806D002280BD09E
:10B73000032810D0042818D112E04878002803D03C
:10B74000002A01D0012070478878002803D0002A01
:10B7500001D002207047C878002801D0032070472C
:10B760000879002801D004207047002070470000AD
:10B770002D2000209C22002010B501220221002053
:10B7800000F0BEFE002801D0072812D107220221B6
:10B79000012000F0B5FE002801D0072809D10021C2
:10B7A0000A22084600F0ACFE002801D0072800D18C
:10B7B000002010BDF0B50F468DB0002116466D4635
:10B7C0000F24621A825C6A54491C1029F9D3284656
:10B7D0000D211030FFF7C9FC0020221A395C5219E4
:10B7E000401C11740328F8D368464DDF0020211A4D
:10B7F0004919203109783154401C0328F7D30DB082
:10B80000F0BD0000044842680121C9050B4693437E
:10B8100083600A40C26070470005005070B5002484
:10B82000064D06E06968E000085C012103F048F974
:10B83000641C28788442F5D3002070BDBC20002011
:10B84000F8B515460C460646052A01D20720F8BD74
:10B8500003F008FA002803D103F0D6F90028F6D146
:10B86000104900204E600C70C8608D6008610E4D5C
:10B870000DE0E00069688019009181786A46517096
:10B8800000780A4A694603F067F90028DFD12046AC
:10B89000641EE4B20028ECD1054A0021024800F001
:10B8A00023F8F8BDBC200020281C020081D901002B
:10B8B00041CC0100BFF34F8F04490348C860BFF378
:10B8C0004F8F00BFFDE700000400FA0500ED00E027
:10B8D0000EB50021029000916A4601910148FFF7E0
:10B8E000E9FF0EBD01400000094B5B68002B07D04B
:10B8F000002A07D0002805D00068037C002B03D065
:10B90000082070470720704741744261002070474B
:10B91000E0200020FFB507469007002581B01E46B5
:10B920001446002825D1002C23D004F025FF3046F2
:10B93000114EF060304610300570457002998170EC
:10B9400044607560357001240C48757024050460EE
:10B9500003211420FFF70CFD09480460094CA7607F
:10B9600003211120FFF704FD6068B060002005B0DE
:10B97000F0BD0720FBE70000D020002080E200E0BF
:10B9800000E100E000150140FEB51F4B5B68002B95
:10B9900030D000282ED0052901D20720FEBD4369F2
:10B9A000002B27D0437C012B26D000270291044690
:10B9B0000025694616460D70684600F03DF801A85E
:10B9C00005F09CFE002819D0012101700F49446048
:10B9D00049688160029907614661C16068460A4909
:10B9E000007948706846007800F044F805F0F8FCEB
:10B9F0002846FEBD0820FEBD0F46D7E76846042551
:10BA0000007800F037F8F3E7E0200020001501404F
:10BA100010B50849496800290AD0002808D04169B2
:10BA2000002905D000210174022105F001FD10BD9F
:10BA3000082010BDE020002030B5EFF3108172B671
:10BA4000094A54680123002C04D00370002900D156
:10BA500062B630BD5360054B1D68054C254015602E
:10BA60001C6000220270F1E7F420002080E100E079
:10BA7000FC06FFBC08494A68002A0CD000280AD1FD
:10BA8000EFF3108072B60A68044B1A6000224A6015
:10BA9000002800D162B67047F420002000E100E0E9
:10BAA000F0B504468BB0008800F01EFB059020889E
:10BAB00002F0DCF90646A0680090657A68460574D5
:10BAC0001E4F20880022397800F05EFB0598002880
:10BAD00031D06079400710D50721304603F0F4FCDF
:10BAE000002813D0082269460A7422884A828E826E
:10BAF000069004A801F094F908E02088B97800F0D5
:10BB000031FB002802D0304602F09AF90321684642
:10BB100001712188C18060794007C10F68460172B8
:10BB2000A0794007C10F6846417201788172C572E1
:10BB300001A801F075F90BB0F0BD0000A0200020B5
:10BB4000F0B50C4693B01F216A46118007260027E6
:10BB50009180002809D0C17849070DD502A9FFF7C7
:10BB60000FFD002809D102AD01E000251780002C4F
:10BB70000ED0E078002802D0304613B0F0BD01AA04
:10BB80000AA92046FFF7FCFC0028F6D10AAA02E029
:10BB900068460022878068468088C3B2684600886D
:10BBA000C1B2284672DFE8E7FFB581B01E460A9FA2
:10BBB0001346040047D0002B45D0504D012028707B
:10BBC0000020E870202219464D48FFF7B5FA002002
:10BBD0006F61C0432E612881284607211830FFF786
:10BBE000C4FA474838212030FFF7BFFA444821788B
:10BBF00020300170A1788170E178C1706178417066
:10BC00003F4A656923695563114613632031E36830
:10BC1000A268CB608A603A49E369A269CB638A6310
:10BC2000616A00291AD00146383102464432416225
:10BC30008A60636A1B880B80616A436A898899807D
:10BC40000021436A07E00E2005B0F0BD656AAD68CB
:10BC50006D5C5554491C9D888D42F7D8A16A002916
:10BC60001CD0274A903211460C398A608162A36A3F
:10BC70009B888B80A16A836A098819800021836A66
:10BC800004E0A56AAD686D5C5554491C9D888D42E1
:10BC9000F7D82C210A5D1A4940310A73216A00291C
:10BCA00009D016490A310162226A52884A80216A03
:10BCB000026A098811806168002900D04160104A39
:10BCC0000E490020AF322031C3001B1A85009B189B
:10BCD0000C68401C63510828F6DB094A0020E73253
:10BCE000030185009B188C68401C63510828F7DB12
:10BCF000034802992030FFF723FFA5E71420002016
:10BD00009C22002010B50188134C102915D0112950
:10BD100019D01B2910D1007A00280DD1E078052117
:10BD2000401CFFF7F3F9084600F04EF8002803D056
:10BD30006169002900D0884710BD817D0129FBD1B0
:10BD40008088208110BD002161718088218988420E
:10BD5000F8D10120E8E700001420002010B50228E7
:10BD600001D003280ED1084C607800280AD00020AA
:10BD70006070E07800F028F8002803D0616900299D
:10BD800000D0884710BD00001420002010B574DFDB
:10BD90000B4C012060710B490620C8700021094836
:10BDA000FFF7CEFE002809D1E07800F00DF800285A
:10BDB00003D06169002900D08847002010BD000031
:10BDC00014200020BC220020F1B53F4C88B0207820
:10BDD00000280AD00898E07006A801F01DFB06981C
:10BDE0000125002804D065706AE0082009B0F0BD84
:10BDF0003548002707211830FFF7B7F9334E707820
:10BE0000002802D0E078012807D0B07800280CD0B4
:10BE1000E078012801D0022807D12169002903D048
:10BE200025710820884700E027710898FFF770FC0B
:10BE3000E0702169002909D0032801D0042805D128
:10BE40003078002802D06079002811D0A77118211D
:10BE50006846FFF78AF9684607700772E1781A4862
:10BE60000B001830FFF74EFB052E080F191D2000A0
:10BE7000A57107208847EAE7A5700190684605701C
:10BE80004782078213E00221A17001906846057085
:10BE9000B18941823189018209E0684604F03EFFA0
:10BEA00002E0684604F066FFE078002803D06846A8
:10BEB00073DF00289AD12169002901D0A078884732
:10BEC000002093E7A770F6E7142000209C220020B2
:10BED00070B5054601461C220E48FFF72DF90E4CA1
:10BEE000002626702968002906D00822201DFFF7A9
:10BEF00023F9201D7ADF02E00748001D7BDF0028C0
:10BF000007D1401E60806670044A00210448FFF794
:10BF1000EBFC70BD64240020442000208116020048
:10BF2000941B0200F8B5214C0146028800261E48E9
:10BF3000E589102A13D01E4F112A1FD0122A2BD0A8
:10BF4000502A1AD1881DC988A94216D141890229CF
:10BF500013D10C3000F09DF900280CD112E08A8832
:10BF6000044642801048082218310C30FFF7E4F8EC
:10BF70006670002D01D100F089FDF8BD0021C94394
:10BF8000418046703868FFF743FD0028F5D0A1696D
:10BF90000029F2D08847F8BD0348082208310C3048
:10BFA000FFF7CAF8E7E700004420002064240020DF
:10BFB000941B020010B503490A7D091D04F0B1FC71
:10BFC00010BD000080240020034B10B50246D97D2F
:10BFD000181D04F093FC10BD80240020034B10B505
:10BFE0000246197E181D04F089FC10BD8024002033
:10BFF000F0B5044602883A488DB0014615310191EA
:10C00000102A09D0112A50D01A2A4AD1217A0909B6
:10C0100001294ED901234DE0027D417D05468A4329
:10C02000011D07A804F07DFC142207A902A8FFF750
:10C0300083F800262A483746143008900AE0710039
:10C0400002A8081883881D220097281D089904F06B
:10C0500015FC761C0298B042F1D8287DA688C04312
:10C06000C0B204F02FFC1F49884217D0400040198D
:10C07000868001233246281D019904F075FC0123B6
:10C080003246281D089904F06FFCA07D02280AD0D2
:10C0900000231349A2881631281D1DE00420FFF754
:10C0A00017FC0DB0F0BD0123F3E70023A288001DAB
:10C0B00012E000230A490546A2881731001D04F04A
:10C0C00053FC207A0009022801D9012300E0002353
:10C0D0000349A2881831281D04F046FCE1E700005E
:10C0E00080240020FFFF000070B50B4E05460024A1
:10C0F000317D2A46301D04F001FC002809D0B17DB5
:10C100002A46301D04F0FAFB002801D0022400E08A
:10C110000124204670BD00008024002010B50024BA
:10C12000204605F0DFFA002805D0641CE4B2182C84
:10C13000F6D3182010BD044801220168A240114323
:10C140000160204610BD00008024002010B5044688
:10C1500005F0C8FA002802D001480019407E10BD41
:10C160008024002070B505460C46084605F0BAFA52
:10C17000002806D003482A460119497E001D04F014
:10C18000BDFB70BD8024002070B5064615460C46E8
:10C19000084605F0A7FA002807D004482B460119E5
:10C1A0003246001D193104F0DFFB70BD80240020F1
:10C1B00073B586B0040023D000250126684600959B
:10C1C0000680458007A801902189E0886A46A4DF9F
:10C1D000002813D1E0880C49884213D002950395BA
:10C1E000049505952189684601818672418881817F
:10C1F000049001980590E08802A9A6DF08B070BD00
:10C200000E20FBE70820F9E7FFFF00007CB505469C
:10C2100008880C460930904201D90C207CBD684644
:10C2200071DF0028FAD121880820685420881B215A
:10C23000401C80B220802954208800A9401C80B274
:10C240002080401906220131FEF776FF20886946DA
:10C25000801D80B220800978002900D00121295456
:10C260002088401C208000207CBD10B50446FFF7CC
:10C27000BFFE204603F02CFE2046FFF753FE20466B
:10C2800000F070F8204602F04DFD2046FFF73AFD21
:10C2900010BD4178027808021043C007C00F7047F4
:10C2A00000B5174887B0406805900023482215491B
:10C2B00005A805F00FF8002801D0FFF709FB6A4632
:10C2C0000121002004F0EEFF002801D0FFF700FB61
:10C2D000684604F0DDFF002801D0FFF7F9FA0A48AC
:10C2E00004F0CCFF002801D0FFF7F2FA074805F070
:10C2F00023F8002801D0FFF7EBFA07B000BD0000DB
:10C30000401B0200D42100206BC201004D1302002B
:10C310007CB5134E00250C463060002918D06946C4
:10C32000002000F0B5F8002819D101A9012000F083
:10C33000AFF8002813D1684601790020002901D008
:10C34000022004E069460978002900D00B20207003
:10C350007068002802D1FFF70FFA054628467CBD19
:10C360000820002010B51C4C0188606810290DD0F1
:10C3700011290AD1401E606007D1FFF7FDF900289E
:10C3800003D02168002900D0884710BD00281ED1A5
:10C3900000210122084600F0B3F8002801D0072848
:10C3A00011D107220221012000F0AAF8002801D0B3
:10C3B000072808D104220221002000F0A1F800285B
:10C3C00005D0072803D02168002900D0884760687D
:10C3D000401C606010BD00000820002010B5032044
:10C3E00000F00CFA002801D0062800D1002010BD72
:10C3F000F8B507460024234802E0641C042C1AD236
:10C40000A2008258BA42F8D1042C14D21D481E4E04
:10C410000C38002929D001290ED002290BD1600047
:10C42000201880194578002D05D018480169002989
:10C4300001D028468847F8BD61006118755C8E19E7
:10C44000717800290CD011490A224968806851434B
:10C450000E4A521CFFF798FA002801D10B4847708A
:10C460000A48B17814300155DDE78068FFF7D0FA4B
:10C4700006486100611814308919005D8D78A84262
:10C48000D1D0F8BD641B020070220020F01F0020F4
:10C4900004280CD2074A1269074B80001B5C01205C
:10C4A0009840904300D00120087000207047002081
:10C4B000FAE7000000050050641B020010B50E4AA8
:10C4C000042806D007280DD00A2801D104F07CFCEE
:10C4D00010BD1321508876DF0AE00028F8D0FFF75E
:10C4E000F7F910BD508805498842FAD1FFF74EFC94
:10C4F0000828F2D110BD0000E81F0020FFFF000057
:10C5000070B50023042811D2440004190D4D012AEE
:10C5100002D101290DD0002246008019094E801950
:10C5200000290CD0012906D0022906D0072318467D
:10C5300070BD0D30C2B22A55F9E74270F7E782703C
:10C54000F5E700007022002010B5054A0146127A76
:10C550000020D20702D0084600F054F810BD0000B9
:10C56000F01F002070B50E46204905464E608D60D4
:10C5700000200A61A9071ED5002401221146204689
:10C58000FFF7BEFF641C042C02D20028F5D012E095
:10C59000002810D1720804211548FFF751F900282E
:10C5A00009D1FFF73BF9002805D11148114A0021B4
:10C5B0001438FFF799F9E90706D00F220E49520502
:10C5C0008A600023CB608A6100280DD108480B4A9D
:10C5D00000211C38FFF788F9002805D10448084AD3
:10C5E00001211838FFF780F970BD0000F01F00200E
:10C5F000741B020039C801000005005099E00100D9
:10C6000005B80100FEB57A4D0722EB6892059A4302
:10C6100002936B6800939C0006461B1900200121C1
:10C62000019349050746734C3300FEF76BFF180D65
:10C630001515374755677C887F8891DE9E9E9E9EA4
:10C640009EC8CED1D8DEDE140F21029A490591434F
:10C65000A160E7602F70FEBDA260E76060680F22F6
:10C6600052055040800209D5A160E760022E02D138
:10C67000E120C0000AE07D20400107E0E160A76002
:10C68000022E01D1C82001E0FF2091302E706421DC
:10C69000FEF73CFD0099414300223FE0A260E760C5
:10C6A00060680F2252055040800204D5A160E76007
:10C6B00019204001EAE7E160A760E3E7A260E760D4
:10C6C00060680F2252055040800202D5A160E760E9
:10C6D000D1E7E160A760D7E7A260E76060680F225A
:10C6E00052055040800202D5A160E76001E0E160A0
:10C6F000A7602E700098410000220FE0A260E76062
:10C7000060680F2252055040800202D5A160E760A8
:10C7100001E0E160A7602E700099002236480068B1
:10C72000FFF732F9FEBDA260E7601BE061680120FF
:10C73000800502468A43A2600140E16010E0606823
:10C74000012189050A468243A2600840E060E3E7D0
:10C750006068012189050A468243A2600840E060C2
:10C760000199C9E7E160A7602DE023484068FFF721
:10C770004FF911218A1B01D0002807D00F22E96848
:10C7800052051140A160E760EF60FEBD0121C905BF
:10C79000E960012A0CD91046C82148436421FEF7FC
:10C7A000B5FC69680022414313484068FFF7ECF884
:10C7B0000F22E96852051140E160A760FEBD0F211C
:10C7C0004905A160E7602E70FEBD07229205AAE729
:10C7D0000D214905A160E76001218905C2E7032118
:10C7E000C905A160E7608910BCE70F214905B9E7D9
:10C7F000F01F002000050050581B0200F0B500217A
:10C800000B4C0C4D03273F048A00A2589200561986
:10C81000326801238B40034000D00323BA431B043A
:10C8200013433360491C0429EED30020F0BD0000FF
:10C83000641B02000007005010B500780221FFF7CA
:10C84000D7FD10BD0022D243830004490428CA50FA
:10C8500002D308182030027770470000F428002027
:10C86000F0B50025ED43002A02D00023042601E0A4
:10C87000042308260B4C04E09F00E7597F1C04D0DA
:10C880005B1CB342F8D32846F0BD26185DB22036B3
:10C8900035709E00A151002AF5D1E11820310877AA
:10C8A000F1E70000F428002002490918202008566A
:10C8B00070470000F4280020002807D00449814276
:10C8C00004D80449814201D90120704700207047F3
:10C8D0002C2100203C210020044A0168914201D013
:10C8E000083101E00149383901607047542A0020BD
:10C8F00070B50D4D04460A462846AC4208D1FF24C7
:10C9000001342146104603F0A1FAA0420AD070BDBE
:10C91000FF2CFCD82146104603F08AFA002801D0EB
:10C92000204670BD284670BDFFFF000070B5084C62
:10C93000050009D010342168002907D0086820605C
:10C94000496828468847F6E70834F4E770BD0000D8
:10C95000E0280020F8B52348416800293ED00E6841
:10C9600021494C6887688078E11B0D022D0AED1C77
:10C97000002814D101201D4A000450601B4A403A8F
:10C9800050601B49400008601A4908601A4901209C
:10C9900008602F2002F00EF8124901208870B5427D
:10C9A00000D23546E81900020F4B000A40331860E8
:10C9B0000D4A5168001B091B0902090A0002C91C23
:10C9C000000A814209D9506818602F2001F0F2FF57
:10C9D00001200749400480390860F8BD03F0CCFE0F
:10C9E000F8BD0000D0200020001501404013014098
:10C9F00080E200E000E100E000100140F8B50646EA
:10CA0000108814468446801D0D46984201D90C209A
:10CA1000F8BD32880720062AFAD31927FF01184BE0
:10CA2000BA4201D99A42F3D171880629F0D3B942AA
:10CA300001D99942ECD19A4203D0994201D08A425D
:10CA4000E6D805216046295420881221401C80B276
:10CA5000208029542088401C80B2208041193088D1
:10CA600004F009FE2188401880B2208041197088A6
:10CA700004F001FE2188401820800020F8BD00004D
:10CA8000FFFF000010B5FEF723FF10BDF8B51648F4
:10CA900001F0BEFA144D00260C3D144C002807D0BE
:10CAA000616900291CD001206A461070684616E0B2
:10CAB0002878002805D06169002911D068460670E1
:10CAC0000DE0687800280DD0A168094800220068B0
:10CAD000FEF75AFF002803D0A169002900D088473B
:10CAE0002E70F8BD6168F0E750200020642400201B
:10CAF000941B0200F0B5002405460E46601C010799
:10CB00008FB0090F1031684607940177601C010748
:10CB1000090F10316846417771794177817FF92794
:10CB20003940891C81771C21FEF71FFB684601787C
:10CB30001A2001436846017007A8019405900394E8
:10CB400004940694297C08A881711349684681845D
:10CB50000894B17908A80170F17941708078E721D3
:10CB60003840801C08404108490008A88170142101
:10CB70000AA8FEF7FAFA09A80A9008A801210B9062
:10CB800068460186448681862B46A88808330AAA0F
:10CB90006946A2DF0FB0F0BD37130000F0B585B0D5
:10CBA0000C46002802D0012005B0F0BD20790027F6
:10CBB0000126002806D01F4D012820D002282CD0A5
:10CBC0000F20F1E702970397E0680190694601A8FA
:10CBD00003F0FCFC00280ED002988188E1800088D8
:10CBE0002081029803F06CFD694609880A01124908
:10CBF00051188E7300E00A2002212171D4E70F4BF7
:10CC00006A460021A01D03F09FFC002807D00B49B5
:10CC100008398F60CF600A28C6D12846C4E701983A
:10CC200003F04EFD054989880A01034951188E73A6
:10CC3000F1E700001D1D0000642A002004210020EF
:10CC4000F8B500260124154D24E06968F000471866
:10CC50003878214681402A690B46134218D08A430E
:10CC60002A6101F0C7FF3A782146EB6891401940EC
:10CC70000346934099420BD17978012901D00121D3
:10CC800000E000217B684140002B01D0104698470E
:10CC9000761CF6B228788642D7D3F8BDBC20002097
:10CCA00010B50E4900230A784C78A24212D0521CCB
:10CCB000D2B20A70022A00D10B700A78074B920098
:10CCC00018339A580260886810180002000A8860B9
:10CCD000012010BD0360002010BD0000D020002006
:10CCE0003EB5094D383538CD0093029501946B4619
:10CCF000588099809A71054900220978FFF744FA13
:10CD0000684600F08DF83EBDE01B0200A020002028
:10CD100010B5047800222300FEF7F4FB0706050790
:10CD20000D1D262C06000A7010BD01220A70028912
:10CD30008A81828814E002220A7002898A818288AC
:10CD4000CA81C2688A60007C062802D0002008746C
:10CD500010BD0120FBE703220A70C2888A81028984
:10CD6000CA81C068886010BD04230B70C0888881A8
:10CD7000CA8110BD0520087010BD000070B5064DB9
:10CD800006460024A0002958002901D030468847D3
:10CD9000641C082CF6D370BD842900200EB5002930
:10CDA00010D011290ED00022009202926A465080C3
:10CDB00001910D2907D0042907D0092010701046D1
:10CDC00000F03CF80EBD0B20F8E70A20F6E7000063
:10CDD00001490968084700006020002070B5054D32
:10CDE00006460024A000295830468847641C022CBF
:10CDF000F8D370BDB01B0200F8B507460024064EFC
:10CE0000064D04E0A000315838468847641CE87895
:10CE10008442F7DBF8BD0000942800209020002019
:10CE200070B5054D06460024A000295830468847B5
:10CE3000641C022CF8D370BDE01B02000149096894
:10CE400008470000241C02007FB504464068002803
:10CE50000BD00020039020780026414D0300FEF700
:10CE600051FB066D0606304E7B6D0120F2E7A0896E
:10CE700000F0DCF9002804D1E08903F039FC002837
:10CE80005CD0A08900F0CCF9014668464180E08979
:10CE900003F028FC0146684601712078012860688B
:10CEA00007D0002809D00420694608706068039004
:10CEB00020E00028F8D00320F6E70120F4E7084638
:10CEC0003AE0A08900F0B2F9002804D1E08903F02B
:10CED0000FFC002832D0A08900F0A2F969464880F2
:10CEE000E08903F0FFFB694608716068002804D000
:10CEF00005200870A0680290E1E70220F9E7A08908
:10CF000000F094F9002819D0E089002816D1A089F2
:10CF100000F086F969464880E08903F0E3FBFF20D2
:10CF200069460871606800280FD0072008706E708D
:10CF3000AE7002F0A3FC684602F05EFB6878002841
:10CF400002D06E7002F09AFC7FBD06216846017027
:10CF5000408802F021FDEAE7082069460870AEE744
:10CF60007C20002000B5104987B00978890702D4D9
:10CF7000022007B000BD0D49884201D10420F8E726
:10CF8000052269460A7001220A71C88000221146F2
:10CF9000684601F05DFF002803D003F0B9FA0020D5
:10CFA000E7E70820E5E70000FC200020FFFF000085
:10CFB00000B50F4887B00078800702D4022007B080
:10CFC00000BD06206946087000221146684601F03F
:10CFD0003FFF002809D007480178002901D001212E
:10CFE000017303F095FA0020E9E70820E7E7000065
:10CFF000FC200020842A002000B58DB01421684652
:10D00000FEF7B3F81E480078810703D56846FFF79E
:10D01000B5FE32E0C00730D1012000F02DF900F05C
:10D02000A5F901F0D7FF00280ED006280FD0012166
:10D030006A4611750300FEF765FA0C1911191119EA
:10D0400018191819131613190B200DB000BD022062
:10D0500000F012F9012000F0F5F8D7E7002000E019
:10D060000320107602E00220FBE711760022114631
:10D0700005A801F0EDFE03F04BFA0020E5E7000003
:10D08000FC20002038B5040014D0694603F09EFA55
:10D09000002813D0684600880101094809188889CA
:10D0A000002809D0A27A002A06D0401E88810020DC
:10D0B000A07238BD052038BD062038BD0A2038BD15
:10D0C000642A00201FB501A9684603F03DFA04B0A8
:10D0D00010BD07B513460A466946002003F034FA2E
:10D0E0000EBD07B513460A460021684603F02CFA28
:10D0F0000EBD002805D0002903D00068086000207C
:10D10000704705207047000038B50D46040017D061
:10D11000002D15D0694603F059FA002812D0684650
:10D12000008861680201084812189089401C9081AB
:10D13000296060680C3068600120A072002038BD52
:10D14000052038BD0A2038BD642A002010B500280B
:10D1500004D00323002204F0C1FB10BD052010BD44
:10D1600010B50223002204F0B9FB10BD10B5002A4F
:10D1700003D0022304F0B2FB10BD052010BD000057
:10D1800010B5064A5178082906D08B00044C491C7A
:10D19000E0505170002010BD0C2010BDFC2000207C
:10D1A0008429002038B504460A480D4600788007D7
:10D1B00001D4022038BD002C0AD06946284604F06C
:10D1C00099FC0028F6D1694609882180658038BD20
:10D1D000052038BDFC20002010B504460E4800781C
:10D1E000800701D4022010BD002C10D02188022914
:10D1F0000FD80A4A0801801842896088121AD21E84
:10D2000007D404F06DFC00202080608010BD052054
:10D2100010BD042010BD0000FC200020642A002066
:10D2200003218903401A80B270470000032189035B
:10D23000401A0349884201D80120704700207047F6
:10D24000FE3F000002490A7882430A7070470000DE
:10D25000FC20002010B504460078182802D1FEF703
:10D260005DFF207010BD10B504460078182802D16B
:10D27000FEF754FF207010BD02490A7802430A707D
:10D2800070470000FC20002070B5064600200546CF
:10D29000042906D0112902D0002903D070BD012530
:10D2A00000E001200E4C002A02460FD06179304682
:10D2B000FEF76AFF2A4621793046FEF765FF002215
:10D2C00061783046FEF760FF002204E06178304666
:10D2D000FEF75AFF2A4621783046FEF755FF70BD0B
:10D2E000A4200020F8B506461C481F4600781546C5
:10D2F0000C46C0070AD03046FFF7DEFA002807D0F8
:10D30000002C07D0A00507D00620F8BD0120F8BDED
:10D310000220F8BD0320F8BD3068A04204D8A8025E
:10D3200071680019884201D90520F8BD002D11D07F
:10D33000684603F03FF800280ED0009802214760AD
:10D3400006600172A101090C8181058203F0EEF8EB
:10D350000020F8BD0420F8BD0720F8BD14210020EE
:10D3600010B5084603F042F810BD0000F0B526489D
:10D37000264C001B0309264819464069421C03D16C
:10D380000120000740698002224A12789646D2079F
:10D390000CD00020F0BD1D4C15012C192568002D66
:10D3A00003D06468002C00D0491E521C9A42F2D36C
:10D3B000002420E0E2B2002594462A460FE0134EF6
:10D3C0001701BE193768002F02D07768002F05D1EA
:10D3D000767BAE4202D93546D6B2B446521C9A424A
:10D3E000EDD362461501094AAA185060157BAD02BB
:10D3F000401B641C10608C42DCD30648714601223D
:10D4000011430170C5E700003C2100202C210020C1
:10D410000010001014210020002804D00349496E98
:10D42000016000207047032070470000942A00200C
:10D43000F8B507461E481E46007815460C46C0073C
:10D440000ED03846FFF738FA00280BD0002D0BD04D
:10D45000002C09D028462043800707D00620F8BDBD
:10D460000120F8BD0220F8BD0320F8BD3868A042B5
:10D4700004D8B10078680919884201D20520F8BDA6
:10D48000002E11D0684602F095FF00280ED00098BB
:10D4900006990760416001210172C56004618682BE
:10D4A00003F044F80020F8BD0420F8BD0720F8BDC3
:10D4B0001421002070B5174B0446186E18214843FC
:10D4C0001549C0180A78950715D5022C02D0032CEF
:10D4D0001CD102E001F092FC18E04A78521CD2B252
:10D4E0004A70032A12D900224A70082103F010FB67
:10D4F00002F04AFF0AE0500708D5FB2002400A70FC
:10D50000586E002802D0022002430A7002F0CAFFBF
:10D5100070BD0000942A00201421002070B500285E
:10D5200001D0012070BD164C0025207B002801D0C1
:10D53000257301E000F09CF820780300FDF7E2FF7E
:10D54000081E05080B0E1E111A1E00F01BF870BDF8
:10D5500000F07EF870BD00F061F870BD00F038F8A2
:10D5600070BD60880649000120394018406801F00C
:10D5700011FD70BD656001F01BFD70BD0F2070BD19
:10D58000842A002070B5104900208A1C0D460346ED
:10D59000203D0C18A67A002E08D0A372040164194D
:10D5A000A689002E02D1A47B012C08D0401C80B299
:10D5B0000228EED30B704B8004484B6070BD108086
:10D5C00000F046F870BD0000842A00201D1D0000F8
:10D5D00010B50F4C60880101204620380818818959
:10D5E00000290BD0052020700A48022181800168A3
:10D5F000002301220848FFF775FE10BD4168002393
:10D6000001220548FFF76EFE0421217010BD0000C5
:10D61000842A00200C2100202C21002038B50A4942
:10D6200008480B6889884268890059185388032480
:10D6300004700020DB1C00909BB20448FFF7F8FE4A
:10D6400038BD0000842A00200C2100202C2100205D
:10D6500010B506494888091D03F008F8002802D0D3
:10D66000FFF7DCFF10BDFFF7B3FF10BD842A0020D9
:10D67000F0B51D481D4907780246012502268C8811
:10D68000203A3B00FDF73EFF080517171A212C2C06
:10D6900016170189491C01810021418001730B018A
:10D6A000D35C002B08D000234418491C89B2A37214
:10D6B0000229F4D30570F0BD0123F5E742685288D2
:10D6C000D21CA2188A800670F0BD45880B682D0117
:10D6D000AA1855680D60536014818E80062100E001
:10D6E00007210170F0BD0000842A00200C210020D9
:10D6F000F0B504460088384D8DB050281DD0522812
:10D7000002D0542826D103E0A08800F00BFF21E0CE
:10D71000062069460870A08800F0A8FB694648808A
:10D72000A2888A8000F056F9A0880022E978FEF7E6
:10D730002BFD6846FFF74CFB0CE0207B012809D14C
:10D74000A07A012806D120892449884202D1A088E4
:10D7500000F024FFA878FEF7F9FC002819D008A8EB
:10D76000FEF728FC142208A903A8FDF7E5FC002415
:10D7700003AE0BE060008719B888A978FEF7F2FCC9
:10D78000002802D0B88800F0CDFE641C0398A042A7
:10D79000F0D86878FEF7DAFC002819D008A8FEF760
:10D7A00009FC142208A903A8FDF7C6FC002403AE57
:10D7B0000BE060008719B8886978FEF7D3FC002871
:10D7C00002D0B88800F0EAFE641C0398A042F0D8AA
:10D7D00003F0C2F90DB0F0BD58200020022900006E
:10D7E0003EB504464088694648802078002814D019
:10D7F00001281DD002280FD1207900280CD0608884
:10D8000000F068FA0E49884206D00E490122C97814
:10D81000FEF7BAFC03F0A0F93EBD002008700846F0
:10D82000FFF7D6FA608800F055FA00F07BFE3EBDA7
:10D83000012168460170A1888180FFF7C9FA3EBDC9
:10D84000FFFF00005820002010B504460078012892
:10D850000DD1608800F066FE608800F07FF9002836
:10D8600005D0034960880122C978FEF78DFC10BD00
:10D870005820002010B5104C00202070FEF74EFC00
:10D880006070FEF74BFCA070FEF748FCE070FEF7FE
:10D8900045FC2071617818290BD0A178182908D08F
:10D8A000E178182905D0182803D001202070002025
:10D8B00010BD032010BD000058200020F0B585B039
:10D8C00000F0A0F86846FEF775FB00246D460C4F8B
:10D8D0000EE060004619B08800F0C8FAB84205D1E1
:10D8E0000849B0880122C978FEF74EFC641CA4B236
:10D8F0000098A042EDD803F02FF905B0F0BD00006C
:10D90000FFFF00005820002010B50178072902D140
:10D91000408800F043FE10BD10B504460A48417827
:10D920002046FEF71FFC00280CD0084800210C22DE
:10D930004A4312185288A24201D1C8B210BD491CF4
:10D940000829F4D3FF2010BD70200020B42400204B
:10D9500070B5094D094E00240C20604340194088E1
:10D960007178FEF7FFFB002804D0641C082CF3D369
:10D97000FF2070BDE0B270BDB424002070200020F4
:10D98000F8B50746114E0125BD403068FEF740F856
:10D99000002806D10E4C20690146294202D0A84336
:10D9A0002061F8BD384601F025F90028E06801D073
:10D9B000284300E0A843E06020690022284320615A
:10D9C000A1683068FDF7E0FFF8BD0000281C0200E8
:10D9D000BC2000201CB5054A9168D26801920091D4
:10D9E0000022694601F0D0FC1CBD00009C1B020017
:10D9F00003480021C9438180012101700020704744
:10DA00006420002010B5044801F0EAFB0349888037
:10DA100003F0CEF810BD0000FFFF000064200020DE
:10DA2000F1B582B0029800F021FA002416490325CE
:10DA300001272646884209D06A46082101F07AFC6F
:10DA4000002803D1019886880568841D2B4632463C
:10DA500021460298A9DF042804D0082804D00B2806
:10DA600007D002E0112000E00020002F00D10B20A1
:10DA7000FEBD0027A80701D50125E7E73443F6D00E
:10DA8000002426460325E1E7FFFF0000F1B582B040
:10DA9000029800F0EBF907461B48874201D11B486A
:10DAA000FEBD01252A466D1C0026ADB26B4608213D
:10DAB000384601F06FFC040002D0072C21D021E091
:10DAC000019903230B600A1D891D0298AADF040037
:10DAD00004D00C2C08D0052C08D008E008213846CA
:10DAE00001F0F2FC04460DE0012600E000240821CC
:10DAF000384601F0D3FC002800D00324002ED1D1F9
:10DB000000E00C242046FEBDFFFF000002300000B4
:10DB10001FB504460078012813D12079012810D1BF
:10DB2000608802AA012101F005FC002809D1022128
:10DB300068460170618841800121017105490968C9
:10DB400088470448044908388088884201D003F097
:10DB50002FF81FBD6C200020FFFF00001CB500F057
:10DB600085F96A46012101F0E5FB002801D000207B
:10DB70001CBD019800781CBDF8B5074E074C084D38
:10DB80000746324661883846A7DFA84203D160883D
:10DB9000401C6080F5E7F8BDFFFF00006420002016
:10DBA000033000008188054A914204D00088002893
:10DBB00001D001207047002070470000FFFF0000E7
:10DBC0003EB5044600780D46022815D10322611C9B
:10DBD0006846FDF7B1FA0322211D02A8FDF7ACFA51
:10DBE00001AA02A92846FDF7E5FD032201A968461E
:10DBF000FDF7C6FA002801D000203EBD01203EBD41
:10DC000010B50C46FFF788FEFF280AD00C214843C8
:10DC1000054907224118091D2046FDF78DFA00200D
:10DC200010BD052010BD0000B424002070B501888F
:10DC300090B0102949D1011D2C2202A8FDF77CFAD1
:10DC40006846234E007B344602AD03282AD001F0FB
:10DC500043FD6846007B00280ED001280CD0022826
:10DC600020D118E00E99281D1131FDF775FC002810
:10DC700002D06846048815E00DAA6946072001F025
:10DC800001FD0028EED10DE00E99281D491CFFF77B
:10DC900097FF0028EDD10DAA6946072001F0F2FC9C
:10DCA0000028F1D168460089291D00F02DFEB442FC
:10DCB0000BD068460089214600F086F86846018945
:10DCC000418001210170FFF789F810B070BD00009C
:10DCD000FFFF0000084A00210C234B43D35A834224
:10DCE00004D10C204143881840887047491C0829FA
:10DCF000F2D3024870470000B4240020FFFF000068
:10DD000010B50E4C182060700D4A0E4900200C23EF
:10DD100043435B18401C5A800828F8D3FEF7FEF9ED
:10DD20006070182804D00548C01C71DF002801D09D
:10DD3000032010BD01202070002010BD70200020A5
:10DD4000FFFF0000B424002070B504460D46401CBF
:10DD500000F090F9002810D01022691C601CFDF71B
:10DD60000FFA00280AD0002629462046113111302A
:10DD7000FDF7F2FB01463046084370BD0126F3E78C
:10DD80000188002903D142189278002A01D001208D
:10DD90007047491C0829F6D30020704710B50C467F
:10DDA0000346FFF7EDFF00280BD018882188884232
:10DDB00006D10822A11C981CFDF7E2F9002801D029
:10DDC000002010BD012010BD10B501F041FE10BDB6
:10DDD00010B50446007888B0002826D1207907289D
:10DDE00023D1608801AA072101F0A4FA00281CD1E0
:10DDF00001F072FC1BE0694660880988884216D0F1
:10DE000004990298FFF7A0FF002810D06088FFF760
:10DE100061FF01466846C182002101756188018366
:10DE20000188418305A8FEF7D9FF08B010BD03AAF9
:10DE30006946072001F026FC0028DCD1F5E7000048
:10DE400070B50446FFF746FF0546204601F077FA15
:10DE5000054904468D4204D0002C02D1284601F029
:10DE6000F7FD204670BD0000FFFF000010B5FFF772
:10DE700053FDFF2804D00C2148430249085A10BD25
:10DE8000014810BDB4240020FFFF00003EB5044649
:10DE900001F022FC10E0019920464631FFF77EFF99
:10DEA000002806D1019920462A31FFF777FF002884
:10DEB00002D0684600893EBD6A4602A9072001F0EB
:10DEC000E1FB0028E7D101483EBD0000FFFF000054
:10DED000F8B50F46002804D00120FFF7B3F9012060
:10DEE000F8BD397900290AD00026254D01290BD02B
:10DEF000244C022920681FD003293BD125E001F0E2
:10DF000057F80121397133E000200101695C0229D1
:10DF10000BD0401C80B20228F7D30220FFF7ACF9E7
:10DF20000120FFF78FF91848F8BD04016019406817
:10DF300001F030F82E551BE0014600230122134862
:10DF4000FFF7D0F90221A18011E001F023F80C497C
:10DF50002368203149880A01094951184D68256014
:10DF60004B60A3880B810221A18005498E543E712C
:10DF70000028D9D00120FFF765F90E20F8BD000078
:10DF8000642A00200C2100201D1D00002C210020EF
:10DF9000F8B51E4C2078002836D0E068002600280E
:10DFA0000CD00025607800282ED1684652DF052865
:10DFB00006D0002806D0FDF78BFC0BE00125F1E729
:10DFC000012607E0009800F045FD2169002901D0F5
:10DFD00000988847002D13D16078002814D16088FC
:10DFE00069460880A06861DF052804D0002804D0B5
:10DFF000FDF76EFC04E0012502E0E168A0688847B7
:10E00000002ECFD0002DE5D0F8BD00001821002053
:10E01000418805480288914204D34088814201D852
:10E020000120704700207047482000201048018CD4
:10E03000C9B2012917D1818C090714D1018D0906B4
:10E040000A0F03D1828D1206120F0ED0090F01297B
:10E0500003D1828D1206120F07D0032903D1808DC0
:10E060000006000F01D0002070470120704700001B
:10E07000C00F00F00021425C002A01D0012070474F
:10E08000491C1029F7D300207047800701D00020D9
:10E09000704701207047000010B50448017AC90795
:10E0A00002D00078FEF7AEFA10BD0000F01F00208D
:10E0B000FFB5244D81B0287A1F460E46084304D090
:10E0C000039A002E04D0002104E0052005B0F0BD25
:10E0D0001C491031019802F0D3FF0446014600228A
:10E0E0000198FFF7D1F8002F03D021460198FEF7E1
:10E0F00055FE0D2C0DD006DC002C0AD0042C16D0B9
:10E10000082C05D105E0112C05D00F48201800D0AF
:10E1100003242046DAE73246E9780198FEF734F81E
:10E12000A978039A0198FEF72FF80024F1E7324608
:10E13000E9780198FEF728F8A978039A0198FEF784
:10E1400023F8E6E7A4200020FECFFFFFFEB5174628
:10E150000C00064604D02078C00704D0012003E05C
:10E1600000217EDFFEBD0220694608713046FFF7C0
:10E170007DFE17490546884208D001A800902B462D
:10E180003A462146304600F025F806E02078214640
:10E19000C007304603D000F081F804460BE07EDF74
:10E1A000044600200090002C08D0002201232946BC
:10E1B000304602F077FC002C02D006E00122F5E7A1
:10E1C00068460179304602F093FC2046FEBD00000F
:10E1D000FFFF0000FFB585B000252E4601AA0721EC
:10E1E0000E9F089801F0A6F8040009D1029D02983C
:10E1F000183540300079C607F60F01D0029D34353E
:10E200000798204312D1002D10D0002E05D12846AA
:10E210001230FFF7B5FD002808D029462A461231F2
:10E22000059885DF04460020387023E0002C01D0DB
:10E23000052C1FD106980078C0070DD003AB012232
:10E240000721089801F0A6F804000AD107210898D0
:10E2500001F09EF9040004D1069905987EDF0400C0
:10E2600008D00721089801F019F9002802D00528E4
:10E2700000D00324002000903878002801D001232A
:10E2800000E00023002C07D000220899059802F036
:10E2900009FC204609B0F0BD0122F6E7FEB50F46A5
:10E2A000064601F03BF805461848854220D001ABF0
:10E2B00001220721284601F06DF804000AD1072148
:10E2C000284601F065F9040004D1394630467EDF66
:10E2D000040008D00721284601F0E0F8002802D009
:10E2E000052800D0032401200090002C0BD002E070
:10E2F000032400200090002201232946304602F02A
:10E30000D1FB2046FEBD0122F6E70000FFFF000022
:10E31000F7B5114D0F46164629780098FDF722FFF4
:10E32000002812D00098FFF7A1FD04460B48844254
:10E330000BD069780098FDF715FF002806D033460A
:10E340003A462146009800F0BDFEFEBD32463946F1
:10E350000098FEF7C5FCFEBDA0200020FFFF0000D6
:10E36000F1B586B00698FDF7F1FE002821D0684689
:10E37000FDF720FE00246E4618E060008519A8888D
:10E380000699FDF7EFFE00280FD00B4FA888B9784B
:10E39000FDF7E8FE0590A888F978FDF7E3FE014651
:10E3A000A8880123059AFFF783FE641C0098A04209
:10E3B000E3D807B0F0BD0000A4200020F0B5284C41
:10E3C0002146103948688B68227886469C46CF786B
:10E3D000667836E0182353436168521CC918A37845
:10E3E000D2B2934200D100220B78022B02D0032B31
:10E3F00027D123E003464D68194603E0A94204D023
:10E400000B46C96900291CD0F8E7002919D08B42B6
:10E4100008D1C069002805D1124F0125BD60002533
:10E42000AC4601270D68C969D961002909D00B687C
:10E430005B190B6005E00174C06900E00021002851
:10E44000F9D19642C6D10649624610398A604860C1
:10E45000CF70704501D00120F0BD0020F0BD00005C
:10E46000E020002000100140F8B52C4E04467068F2
:10E470000025009041E0002C02D02046E46920E015
:10E48000264818231030017842684B43491CC9B212
:10E49000D21801708378994200D1057011785068C4
:10E4A00001292CD1017C002929D191684160D168D2
:10E4B00081601169C16051698161F178002900D0E2
:10E4C00045604368B268164F991A0902090AB942B1
:10E4D00002D28268891806E0D11A09028268090A04
:10E4E0008A4202D9511A016000E0056045600121AD
:10E4F00085600174C56102F07BFF002CBBD1074829
:10E500001030017840788142BAD171680098814218
:10E5100001D00120F8BD0020F8BD0000D02000206F
:10E52000FFFF7F00FEB504461948002684422DD027
:10E530002046FFF775FA050012D00B2D14D0112DCF
:10E5400010D0144828181BD00921684601702046B5
:10E55000FFF78CFC014668464180848002950DE0FF
:10E56000022102E001260BE00321684601702046EB
:10E57000FFF77CFC0146684641808480FEF728FC5A
:10E580000548324681782046FDF7FEFDFEBD0000BD
:10E59000FFFF0000FECFFFFF58200020FEB504461D
:10E5A0000026FFF773FA05460C281AD004DC002D6C
:10E5B00013D0042D05D127E0112D10D013482818B1
:10E5C0001BD00921684601702046FFF74FFC014629
:10E5D00068464180848002950DE0012102E0012619
:10E5E0000BE007216846017084802046FFF73EFC5F
:10E5F000014668464180FEF7EBFB0548324641780C
:10E600002046FDF7C1FDFEBD0821EBE7FECFFFFF71
:10E6100058200020F8B5054600780C460026204218
:10E6200010D10020694608706846FDF705FA287881
:10E630000146214202D12043287001266846007815
:10E64000FDF718FA3046F8BD002398B05E4A052160
:10E650001846FDF75FF9002801D0FDF739F95B4A4C
:10E6600001215B48FDF740F9002801D0FDF730F9A2
:10E67000574801210022C9030068FDF785F90028E9
:10E6800001D0FDF725F9534A53490320FDF76AFFEE
:10E69000002801D0FDF71CF969460020FDF738FE7F
:10E6A000002801D0FDF714F96846007802287DD0D3
:10E6B000002168460171FDF7F3FD6846007901F01D
:10E6C000DBF9012001461031684601730F2243A196
:10E6D00003A87CDF002801D0FDF7FAF8002400949D
:10E6E0005021684601940180A0214180FF2184804F
:10E6F0009131C1807ADF002801D0FDF7E9F83B486D
:10E7000000900120014601941031684641710120BA
:10E71000014610316846817101200146103168467A
:10E72000C17129486946C03000F0CEFB382101A8EC
:10E73000FCF71BFD02216846017101258571062148
:10E74000C17185822A48069020210FA8FCF70DFD93
:10E7500008A8C577FF202D301390B42000941490A2
:10E76000244B0FAA002101A8FDF71EFA002801D0B2
:10E77000FDF7AEF81C216846FCF7F7FC0520C00346
:10E7800001900F2000040290009403216846017359
:10E79000C481047418480590184806906846FDF72F
:10E7A00097FB002801D0FDF793F800E003E0032079
:10E7B000FDF70AFB02E001217BE748DF0028FCD0DF
:10E7C000FDF786F8F9E700005C21002079140200CB
:10E7D000401B0200BDC40100CD0C00004E6F7264EE
:10E7E00069635F54656D706C61746500E9ED0100EB
:10E7F000EC1F002003ED0100C9ED010085CA0100F6
:10E8000070B5144682880E4605462088111D4118B1
:10E81000921C994201D8FE2A01D90C2070BD521CCD
:10E8200032542088FF21401C80B22080315420883F
:10E83000401C80B220808119288802F01CFF2188AA
:10E84000401880B22080AA88002A09D0A96800292F
:10E8500008D08019FCF770FC2088A9884018208017
:10E86000002070BD072070BDF8B50F460178144632
:10E870000546012902D16878002806D02088821C2C
:10E880009A422DD8012902D006E00720F8BD697808
:10E890004118891C994223D8181A801E86B26846EE
:10E8A00006802188B81C081869467DDF0028EDD154
:10E8B0002878022805D169460988B14201D8092182
:10E8C0000AE00821012805D16878B04202D86A46DA
:10E8D000108001E06846068068460088FE2801D95D
:10E8E0000C20F8BD2288401CB8542088401C80B2FF
:10E8F0002080395420886946401C208009884018AF
:10E9000020800020F8BD0000F8B5FF240F46054622
:10E9100000291FD0104EB5421CD01048012241786A
:10E920002846FDF731FC2846FEF7F6FF0446FF288F
:10E9300004D1FFF70DF80446FF280BD00C21484303
:10E9400007490246401845808E52001D072239466D
:10E95000FCF7F2FB2046F8BDFFFF0000702000200E
:10E96000B424002070B50B4D0E46A84201D1002002
:10E9700000E0401C84B209E02146304601F080FAF4
:10E98000002801D0204670BD641CA4B2FF2CF3D92E
:10E99000284670BDFFFF000001218907401800686C
:10E9A000002800D001207047012200219207801822
:10E9B0000160704700280FD00849094A096800BF64
:10E9C00000BF00BF00BF00BF00BF00BF00BF91423B
:10E9D00000D000BF401EF2D1704700001020002080
:10E9E0000024F40010B50C4C2078002801D08520BC
:10E9F00010BD0020A06060602061E060032100F095
:10EA00002FF802F093FC0121002801D10348816115
:10EA10002170002010BD0000E0280020000500400B
:10EA200038B50020694608706846FDF705F8084CBF
:10EA30002078002801D1FFF7D5FFE068401CE06096
:10EA40000120A07068460078FDF714F838BD00007A
:10EA5000E028002010B5002801D1FDF767FF10BDA8
:10EA60008207D30EFF229A408907090E10B59940FC
:10EA700000280BDA03071B0F083B9C080C4BA40073
:10EA8000E318DC6994430C43DC6107E08408094B1C
:10EA9000A400E418236893430B432360C106C90E06
:10EAA00001208840044908600449086010BD000046
:10EAB00000ED00E000E400E080E200E000E100E0C2
:10EAC000F3B581B00F46019801F01CF8012400282D
:10EAD0001D4E019817D0FDF7E7FE80192030007F0A
:10EAE0008009032802D001280BD005E017480069EF
:10EAF00001998C40204204D00321019800F0CCF809
:10EB0000FEBD0221F9E701F009F80028F8D00198CC
:10EB1000FDF7CAFE05468100C81D0D4AF930891867
:10EB20000A6980B222430A6100F0C6F8002FE7D0DC
:10EB30000198FDF7B9FE800030580028E0D0054864
:10EB4000AC404460FEBD0000F428002000050050E9
:10EB50000065004000630040FEB515460E460446C1
:10EB6000002700F0C5FF002801D0082738E0F27820
:10EB700029462046FDF774FE0546401C2FD0B0788C
:10EB8000002807D01748A1000918086802229043FE
:10EB9000086007E000217378204600910A46019141
:10EBA00000F068F8F078002810D00F48AA0010187C
:10EBB000317802690D4B1A400261E206D20C8907D6
:10EBC000890B0A4301690A43026109E00848327867
:10EBD00040192030017F92011143017700E00427A2
:10EBE0003846FEBD0007005000650040FFE0FCFF16
:10EBF000F428002003490969C140C807C00F00D0AC
:10EC0000012070470005005070B5144D2879002888
:10EC100001D0082070BD114900204039421E0B1858
:10EC20002033401CC0B21A702028F8D3002420469C
:10EC3000FDF708FE641CE4B2082CF8D3032106207B
:10EC4000FFF70EFFFF207D3000F036F80120044969
:10EC5000C007486001202871002070BD34290020C1
:10EC60000063004002480079002800D0012070476E
:10EC70003429002030B552000A439900039C0A430E
:10EC80002102049D0A4329040A43024980004018D6
:10EC9000026030BD0007005082000648101802686C
:10ECA00003231B049A430260026809040A430260BA
:10ECB0007047000000070050024940180021016021
:10ECC00070470000006000400349401800680128B8
:10ECD00000D0002070470000006000400921C901F9
:10ECE00041180868086070474058002800D001208B
:10ECF00070470322120280184068084000D00120AB
:10ED0000704710B5002809D0032806D10220FDF76E
:10ED10001BFC002801D0FCF7DBFD10BD02F054F80D
:10ED200010BD000010B50446008888B03A2821D0F4
:10ED300009DC022824D0102811D011280DD1002080
:10ED4000FDF702FC19E051281ED0552805D1A088F6
:10ED5000132176DF11E0FCF7BBFD08B010BD0720E2
:10ED6000FDF7F2FB002801D0FCF7B2FD1549A088A1
:10ED70004880F2E7A088132176DF0028EBD1ECE78A
:10ED8000A088002167DFF8E71022A11D04A8FCF786
:10ED9000D3F96846017C0029DFD0007E042803D027
:10EDA000062801D00528D8D1022908D001206946BB
:10EDB0000870FF2083308880A088A8DFDDE702206C
:10EDC000F5E70000E81F002010B50078002807D103
:10EDD00004483B21408876DF002801D0FCF778FD0D
:10EDE00010BD0000E81F00200878002802D1024969
:10EDF0000120487070470000E81F002010B5134A3A
:10EE000000215170017A012911D002290ED1818986
:10EE1000491C8181C189491C89B2C181028A914200
:10EE200004D1002101F074FE01F0AEFA10BD838A16
:10EE3000C28A991AFF2901DC89B201E0FF21013160
:10EE4000511889B2C1829942EBD010BD1421002023
:10EE5000F7B51C4D0E4601466A6F002082B0032AAA
:10EE60002DD82C4678340827636CBF1BBB4226D8AC
:10EE7000286F10188007800F1C2250434019FCF7A0
:10EE80005BF9686F401C6867002E17D0216C606CBE
:10EE900040184007800E00190023009009E00498F4
:10EEA000D9000A18009806CA06C06846FDF714FD86
:10EEB0005B1CB342F3D3606C80196064012005B021
:10EEC000F0BD0000A429002030B585B00D46040037
:10EED00023D0002D21D0286820600020C043104B93
:10EEE000E0800FCB03936B4607C30E486946088248
:10EEF0001231684663DF002801D0FCF7E9FC221DCF
:10EF000004A90120A0DF002801D0FCF7E1FC29467C
:10EF10002046FDF7EFFD05B030BD0E20FBE70000F9
:10EF2000481B0200CDAB00000389CA1C9A1802815D
:10EF30004289511AC91E418170470000F7B50D463C
:10EF4000012189024718044600260834022028803F
:10EF5000BC4217D22068401C14D02046FEF722FE87
:10EF600000280DD00A48A1684268914200D941604A
:10EF7000608881000C1929880C340818C01CE6E749
:10EF80000126F5E70298002800D00670FEBD0000BB
:10EF9000FC20002008B50021009101460223024A0E
:10EFA0000248FEF745FA08BD3C1C02002C21002057
:10EFB00008B500200090044802230168034A044871
:10EFC000FEF736FA08BD00000C210020341C0200B8
:10EFD0002C210020F8B50025354F2C462E460095F3
:10EFE0003448B102006840180168B94205D1324A7C
:10EFF0004168891830D001290CD000218A0082583C
:10F000000346521C36D003202C4922018854641C2C
:10F01000A4B21BE0009900290CD0284B0222210148
:10F020005A54274A1368254A891802224B60641CE7
:10F030000A81A4B2224900220860091DFFF77EFF61
:10F040001F488088022831D008200543761CB6B2BC
:10F05000032EC5D3E8B2F8BD1849002322018B5412
:10F0600051180A4648600E320831FFF767FF022048
:10F070000543CCE7491CFF29C0D911490A68002A79
:10F080000CD00E4A02212301D1549A1850600B482B
:10F09000118120304480641CA4B204E002200B6083
:10F0A00088800120009001200543CFE70420CCE7B1
:10F0B000DEC0ADDE2C21002002FEE10E642A00201D
:10F0C0000C21002070B5194D0E4604462C3523CD79
:10F0D00086B00295009001916846448082808371D9
:10F0E000134D2046A978FDF73DF8002803D030469F
:10F0F000FEF7A6FE0FE00721304600F0CFF900280A
:10F1000009D0052807D1092269460A73CC810490E9
:10F1100003A8FDF785FE002229782046FDF734F884
:10F120006846FDF77DFE06B070BD0000E01B0200E2
:10F13000A0200020F0B585B00746FDF707F80028AD
:10F1400014D06846FCF736FF00246D460BE06000E3
:10F150004619B0883946FDF705F8002802D0B08876
:10F1600002F02EF8641C0098A042F0D805B0F0BD63
:10F1700070B5054D06460024A00029583046884742
:10F18000641C052CF8D370BDBC1B02003EB50F4DAE
:10F19000002414206043401902F07AFB641C082C00
:10F1A000F7D30821502001910A490124C20002909E
:10F1B000074B0094881800F0ECFC002801D00320D5
:10F1C0003EBD0348447000203EBD0000B42700202F
:10F1D000882000202425002010B500F04BFA10BD37
:10F1E00010B500F04BFA10BDF0B5002585B00095C4
:10F1F000019502950395044641886846418021792E
:10F2000001712E462179608802F01CFB22780421CE
:10F21000404F1300FCF776F90A0606361C1C383EF0
:10F2200043484B4D00280DD0417CC9070AD002F05D
:10F2300041FB684606702078012800D0002069460E
:10F2400008722AE0012069460870A068029024E054
:10F2500000280ED08268A3689A420AD1427CD30764
:10F2600007D07B6852085B1C52000A437B604274E3
:10F270001FE0022069460870E06803900DE0FFF788
:10F2800077FF16E0032006E068460170E068029010
:10F290006846F4E70520694608700846EFE706204F
:10F2A00069460870E068D1E701250720F3E7E068C8
:10F2B00002907868002824D0174E00241420274696
:10F2C0004743B819417C4A0703D48907C90F29422B
:10F2D0001CD08178F05B00F0F7F8002816D01421DC
:10F2E0004C43325B69464A80B9198A7869460A718B
:10F2F000042808D009216A46117002906846FFF779
:10F3000037FF05B0F0BD08200870F7E7641C082C33
:10F31000D4D3F6E788200020B427002010B500F0F1
:10F3200071FA10BD08B513889B0000936B4600F07E
:10F33000DBF908BD10B5002300F0D6F910BD38B5D3
:10F340000546002420460AE08178284600F0A6F809
:10F35000002802D0052800D003240098401C00900B
:10F360006946284602F080FA0028EDD1002C07D12A
:10F37000284600F04FFA002802D0072802D00324C4
:10F38000204638BD0724FBE710B51346002200F0E5
:10F39000E3F910BDFFB581B0049815460E4600286C
:10F3A00004D0072E05D0082E19D102E00E2005B09A
:10F3B000F0BD002D13D0082D11D8019800F035FABA
:10F3C00000280CD0002000903146019802F03AFA53
:10F3D000040026D0E068A84212D2002709E00720E6
:10F3E000E5E7207CC019C1B22A4800F00BFC7F1C65
:10F3F000FFB2E068B842F4D8204602F049FA10E0C3
:10F40000A84217D9EFB207E0207CC019C1B2214849
:10F4100000F0F8FB7F1CFFB2E068B842F4D8002C83
:10F4200008D1FF211C48019F02F00CFA040005D00E
:10F430000780A670207CFF2802D00AE01120B6E7E2
:10F440002946144800F076FB2074FF2813D00120D1
:10F450000090E560217C0F4800F0BDFB02000ED05B
:10F46000ABB23146049800F071FA009800280FD032
:10F47000082E06D00CE0204602F00AFADEE7032050
:10F4800095E704980499008849688000801F888067
:10F4900000208CE7A4270020FFFF000070B50024A7
:10F4A00002F0D0F905000CD06868002804D000F004
:10F4B000D8F9040000D00324284602F0FBF92046C6
:10F4C00070BD052070BD00007CB50D4606460729BD
:10F4D00003D0082D01D007207CBD002000900190B2
:10F4E000684685702946304602F0ACF9040004D025
:10F4F000607CC00703D000207CBD05207CBD217C42
:10F50000214800F068FB020025D029466846E368E0
:10F5100000F0AFF9684602F083F9234608336946E4
:10F520003046626800F018F90246607C17494307CC
:10F5300004D5830702D54B685B1E4B60FB25FD237A
:10F54000002A0AD0112A0DD0042A14D0072A00D08C
:10F55000032210467CBD03207CBD012108432840C6
:10F5600018400EE04A68521C4A60042108431840C3
:10F5700060740022EDE74B6828405B1C4B60022161
:10F5800008436074E5E70000A427002088200020DD
:10F590007CB50D46072903D0082D01D007207CBD7E
:10F5A000002602F04FF9040003D06068002802D062
:10F5B0001BE005207CBD217C0E4800F00CFB0246C0
:10F5C00000200090019068468570002A0FD02946DF
:10F5D000E36800F04EF9684602F022F9211D684602
:10F5E00000F027F90646092801D030467CBD0320EB
:10F5F0007CBD0000A42700200149096808470000DD
:10F60000B81B020070B588B01748FDF7B9FD002897
:10F6100002D0032008B070BDFDF7EEFC002801D039
:10F620000420F7E700F0E8F90020104C0290E61FF4
:10F6300003900DE0694604A8FDF766FD00988088F8
:10F64000801B85B204A8FDF71DFD284600F088F94F
:10F6500002AA04A92046FDF73CFD0028EAD004498F
:10F66000012008700020D5E749CE010007C0000046
:10F670007C20002010B500F09DF910BD10B500F001
:10F68000A1F910BD70B505460320800386B014466D
:10F690000E46281880B20F4A6946FDF71AFD002869
:10F6A00005D103A96846FDF72FFD002802D00020F0
:10F6B00006B070BDA57003984088208004986060F3
:10F6C00003988088FDF7ACFD30806846FDF7DAFCD2
:10F6D0000120EDE780200020024800214160816088
:10F6E000704700007C200020F0B587B01D4614460E
:10F6F00007460E46FF280CD8084600F017F90028E8
:10F7000007D003AA3146384600F0F8F8002809D19E
:10F7100002E0072007B0F0BD01A903A8FDF7F4FC43
:10F72000002801D00520F5E7A6700198002D40883B
:10F7300020800AD082002868904204D8029960682C
:10F74000FBF7FAFC03E00420E4E70298606003A8FA
:10F75000FDF798FC0020DDE77FB588B01D460C461C
:10F760000646FF2831D8A07800F0E0F800282CD019
:10F7700060680690208869468883304600F076F9F4
:10F7800069460880A07803218903401869464880AB
:10F7900006A8019001200881A17803AA304600F054
:10F7A000ADF8052813D00AA8FDF716FD694603A891
:10F7B000FDF7CCFC002818D0072820D008281CD042
:10F7C0000E281AD003200CB070BD0720FBE70A9862
:10F7D000002805D00AAA694603A8FDF7C7FCE9E797
:10F7E000694603A8FDF7BCFCE4E7002D03D02946D9
:10F7F00003A8FDF77EFC0020E5E71120E3E70420E5
:10F80000E1E7000010B5024800F0AAF810BD0000C2
:10F81000FFFF000010B5FF2801D9072010BD00F040
:10F82000A7F800F02BF8002010BD10B500F0F8F894
:10F8300010BD70B504460D46807800F077F80028BA
:10F840000BD021882846FDF7ADFC002804D00728FE
:10F8500005D0092800D0032070BD072070BD04200A
:10F8600070BD01B56846FDF7B7FC002800D0032045
:10F8700008BD10B59BB200F069F810BDF0B589B0B5
:10F8800000261C4F04963846059600F093F804466F
:10F89000194D06E0204600F07FF8204600F08AF877
:10F8A0000446BC4222D000F0E1F804AA06A9FDF704
:10F8B00018FC0A28EED0A878002817D1032080036E
:10F8C00001272018AF7080B2FDF74CFB08280FD03D
:10F8D00000280BD0AE70092269460A704C80FF22C6
:10F8E0000A71039002966846FFF786FE09B0F0BDE4
:10F8F0006F70FBE7FFFF00007C2000207CB5054611
:10F9000016460C46084600F011F80020032100902E
:10F91000890301906818611880B289B26B4632463B
:10F92000FDF7D0FB002800D005207CBD07280BD0B8
:10F93000012809D0082807D0052805D0062803D0BB
:10F94000042801D0002070470120704710B55024D2
:10F9500063439BB28170DB1C99084260018010BD3B
:10F9600010B50249FCF7C4FF10BD00005428002068
:10F9700010B504460648844207D006492046FCF7E5
:10F98000B7FFA04201D1012010BD002010BD000032
:10F99000FFFF00007428002010B50446044900F061
:10F9A000E1FE03492046203100F0DCFE10BD0000DE
:10F9B0005428002010B50249FEF7D4FF10BD000006
:10F9C0007428002070B50A49FEF7CCFF0446094DA3
:10F9D00008E000F031F8002807D005492046FEF77E
:10F9E000C1FF0446AC42F4D170BD204670BD00009A
:10F9F00054280020FFFF000010B508484021FBF705
:10FA0000B4FBFF2401342146044800F009FA0348FE
:10FA10002146203000F004FA10BD000054280020D8
:10FA200010B5FF2804D80146024800F029FA10BD9D
:10FA3000002010BD5428002010B5FF2804D801462E
:10FA4000024800F01DFA10BD002010BD74280020EF
:10FA500010B50C46FDF760FFFF2803D00C2148438A
:10FA600001490C5210BD0000B42400200321890379
:10FA7000401880B2704700001CB5044600F08EF9B3
:10FA8000002801D0FBF724FF002C05D000F094FBE8
:10FA9000002801D0FBF71CFF002000900190684671
:10FAA0000078012210438121084030304106490E80
:10FAB000684601700721417010218170C1780223CE
:10FAC00011431943C170017911431943017100F0C9
:10FAD000A9FB002801D0FBF7FBFE044800F08AFBDD
:10FAE000002801D0FBF7F4FE1CBD000051FC010012
:10FAF0000349081820214156C817401C70470000D0
:10FB0000F42800200449081820214156042901DB6B
:10FB10000120704700207047F4280020044908188D
:10FB200020214156042901D201207047002070474E
:10FB3000F4280020F8B50F46060028D030680028C9
:10FB400025D07068002822D0FF2400251CE029461B
:10FB5000706800F06DF9002808D0FF2C00D12C4609
:10FB6000281B401CB8420DD12046F8BDFF2C06D101
:10FB700008E02146304600F045F8641CE4B2AC428F
:10FB8000F7D3FF246D1CEDB2B068A842DFD8FF2088
:10FB9000F8BDF8B50400069E089D079819D0002905
:10FBA00017D0002B15D007466F43974211D8C21DBE
:10FBB000D208B2420DD800280BD0002D09D0E56044
:10FBC00063602160A06081B2184600F029F900202E
:10FBD000F8BD0720F8BD70B504000D4610D02068B0
:10FBE00000280DD0606800280AD0FF2D08D000F052
:10FBF00047F9002804D0E06821686843081870BD00
:10FC0000002070BD70B504000D460FD0206800289C
:10FC10000CD06068002809D0FF2D07D000F030F923
:10FC2000002803D02946606800F036F970BD10B591
:10FC300001F0E8F810BD000010B5044A1278002A5F
:10FC400002D001F015F910BD082010BD9020002051
:10FC500008B501780B00FBF755FC0F091209131EBC
:10FC60002532122C12322E3212341200808800F00B
:10FC7000EBF9112803D0002801D0FBF729FE08BDBD
:10FC80004189114A8918FAD140880121FFF7D4FF30
:10FC90000828F0D108BD0021009140886946FFF78F
:10FCA000C6FF08BDFDF784F90E28FAD00828F8D061
:10FCB000E1E70020E1E70320FCF786F8DBE7806856
:10FCC000D9E700F0A3F808BDFAEFFFFF70B586B0E2
:10FCD000044614216846FBF748FA60886946888024
:10FCE000FDF7F8FF694648802678002008220721A2
:10FCF00005253300FBF706FC0A06060B0D0F14164C
:10FD0000281A1D256B46197058721A7219E00D20B9
:10FD100009E00E2007E06A4611705072157210E07B
:10FD20000F2000E01020694608700AE06846057060
:10FD300007E0062168460170A0680290A188684625
:10FD400041806846FDF758F806B070BD10B504460E
:10FD5000007886B000281AD0012816D10E49608894
:10FD600001224979FCF710FA14216846FBF7FDF9E6
:10FD70006088694648806088FEF778F86946888020
:10FD8000002008706846FDF737F806B010BDE0881F
:10FD900000F04EF9F9E700009020002070B5FFF761
:10FDA00031FC00282ED1FFF7F1F900282AD101F00B
:10FDB00037F8002826D101F045F9002822D1FDF7B7
:10FDC00059FD00281ED1FDF713FE00281AD1FDF7BA
:10FDD00097FF002816D10C4C401EE080002518200B
:10FDE000A56020716071FCF799F92071182809D07D
:10FDF000FCF794F96071182804D065700120207018
:10FE0000002070BD032070BD9020002010B5034875
:10FE10000078002801D0FDF751FD10BD9020002092
:10FE200010B5002803D0C91DC908FBF79EF910BD05
:10FE300010B5002809D04B075B0F01229A40C90872
:10FE4000D2B208181146FEF7E5FB10BDF8B50D4615
:10FE5000060013D0002401270EE06107490F384641
:10FE60008840C1B2E0088019FEF7D4FB002801D019
:10FE70002046F8BD641CA4B2AC42EED32846F8BDBF
:10FE8000002807D0CA08805C4A07520F0121914020
:10FE9000084000D001207047F8B504464805050E1B
:10FEA0004907490F01208840C6B2002C0ED0605D82
:10FEB00030420BD0002168460170FBF7BDFD605D4C
:10FEC000B043605568460078FBF7D4FDF8BD0000EC
:10FED00010B5044606480078002808D02046FDF7F3
:10FEE000A5FE204600F084FF2046FDF701FC10BD72
:10FEF00090200020F0B58BB0044614216846FBF733
:10FF000034F9608869468880FDF7E4FE69464880D8
:10FF100027780120082207210026434D3B00FBF7EC
:10FF2000F1FA0A060E20353B435F80787A806A46F4
:10FF30001170217911725672039690726EE06A46C2
:10FF40001170217911725672A16803919072A8689C
:10FF5000002863D0A168814260D1AE609088E880BB
:10FF600012E068460270217901724672A06803901F
:10FF7000E0680490A868002850D0A16881424DD163
:10FF8000AE60E868401EE860039647E06A4611707C
:10FF9000217911725072F7E769460A7022790A7264
:10FFA0004872A068049039E0092069460870A87872
:10FFB000002833D01D4C2046FFF712F9A0422DD166
:10FFC0002046FFF709F9A04228D1AE70142105A8F8
:10FFD000FBF7CBF80B21684601750483C48214E05B
:10FFE0000A2069460870A0680290A878002815D0F9
:10FFF000AE70142105A8FBF7B8F80C206946087507
:020000040002F8
:100000000A480883C882A068079005A8FCF7F4FE98
:1000100004E0052000E00620694608706846FCF709
:10002000EBFE0BB0F0BD000090200020FFFF0000B1
:1000300010B504490978002902D0FDF701FF10BD71
:10004000082010BD90200020F0B52D4C06462078E9
:1000500087B0002808D02B498868C96806910590A8
:100060006078002803D00FE0082007B0F0BD2449D5
:1000700000230C311A46881F00F046F8002801D0F2
:10008000052801D1012060706078A168401E0843F6
:1000900001D0112531E0E0880027864219D1E068BF
:1000A000002816D0002514216846FBF75EF80721CA
:1000B000684601703046FDF70DFE014668464180F6
:1000C000868006210172477203978772FCF794FEBF
:1000D00013E0E0680A4A401CE060083205A9304697
:1000E000FFF752F9050008D0A760E068401EE06005
:1000F000112D02D0042D00D003252846B5E70000BD
:1001000090200020D01B0200FFB5284885B0007861
:10011000002816D0264E3046FFF762F800900020E7
:100120000390244801AA0068019003A802900621C8
:100130000098FFF7F7F800256C1E3746072803D014
:1001400016E0082009B0F0BD0520FBE70020039071
:10015000A84201D3009F0546A04201D2009E04465A
:100160000098FFF73DF801AA06210090FFF7DAF8A2
:10017000002817D00528E9D00D490098884213D1EE
:1001800005990020002900D00F800699002900D091
:100190000D600799002900D00E8008990029D1D060
:1001A0000C60CFE70398D3E70320CBE79020002033
:1001B000FFFF0000D01B020070B50C480178002939
:1001C00004D001210A4D8170284608E0082070BD46
:1001D000FFF72EFF002801D0032070BD2046FEF758
:1001E000FFFF0446A842F3D1002070BD90200020FC
:1001F000FFFF000010B5094A1178002904D0D1781A
:10020000032903D3042010BD082010BD8B00044C2B
:10021000491CE050D170002010BD0000902000204B
:100220009428002010B504490978002902D000F074
:1002300041FE10BD082010BD90200020F0B585B013
:100240000446012614216846FAF78FFF6088694644
:1002500048804B4F2078002539797A790300FBF7E5
:1002600051F90D828D081C30424C5159646A6C7EE4
:10027000820001206A4610702079002801D00122F6
:1002800000E00022012806D000256088FBF77CFFF3
:1002900060882A4611E00125F7E702206A461070BF
:1002A0002079002801D0012000E00220107260882F
:1002B0000122FBF769FF227960887979FBF764FFF7
:1002C00052E003206946087060881146FBF74AFF38
:1002D000002801D0012100E0022168460172A179C5
:1002E0000173A18839E06088FBF73CFF002845D105
:1002F0000220694608700D7236E0032168460170DD
:100300000572ECE7072069460870A2888A800872A7
:100310004D7230E0082168460170A1888180072174
:1003200001724572A068049025E0062069460870B5
:100330006068029018E0052012E00320694608700A
:1003400060881146FBF70EFF002801D0012100E074
:100350000221684601720B490573418104E00420C3
:100360006946087000E000266088FDF77FFD694659
:100370008880002E02D06846FCF73EFD05B0F0BD37
:1003800090200020011100000848416E491E41667E
:1003900004D10749FD230A781A400A70016E491CEE
:1003A0000166042901D1002101667047942A0020CA
:1003B0001421002070B50C490446486E042810D062
:1003C0000A6E1218042A00D3121F401C4866182017
:1003D0004243551801462846FAF7C7FE012025601A
:1003E00070BD002070BD0000942A0020F0B52B4C99
:1003F0001C22216F85B051430D192978284E002702
:100400000B00FBF77FF807190509090D0D111900FD
:100410002946FDF75DFD09E0294601F0EBFA05E00C
:100420002946FCF7BBFB01E0FDF778F800282FD048
:10043000B04202D1019710E00F20019028780228E5
:1004400001D0032809D11548AA7D7830016C89189C
:100450000164AA7D416C891A416469462846FCF70B
:1004600057FC6846FCF78AFC206F1C2148430019A2
:10047000FAF77BFE606F00280CD0216F491C8907BA
:10048000890F2167401E606704D00020FFF7AEFF90
:1004900005B0F0BD0420FCF7D5FEF9E7A429002043
:1004A0001D1D000010B518481822016E51430C188C
:1004B000406E00281FD0207A012802D0022816D1D1
:1004C0000FE0A18AE08A091AFF2901DC8AB201E063
:1004D000FF220132E168800023690918181829DF1A
:1004E00001E0A08928DF112806D0002803D00921C7
:1004F000204600F00DFB10BD0449FD220878104095
:1005000004221043087010BD942A002014210020FA
:1005100010B505480078400705D40420FCF7ACFE70
:100520000020FFF763FF10BDFC20002010B5054838
:1005300001784A07920F04D1022211430170FFF79C
:10054000B1FF10BD14210020F8B507461D481C4618
:10055000007815460E46800701D40220F8BD002D14
:1005600001D0002C28D10520F8BD01011648405CBF
:1005700000281ED116E02068002F03D081883A8819
:1005800091420FD1002E03D001883288914209D1C7
:1005900080682860206868600B48203000892881C6
:1005A0000020F8BDA088214600F060F80028E2D1C4
:1005B0002060A088401CA080A0880228D5D30A20F3
:1005C000F8BD0000FC200020642A0020F8B5054694
:1005D0004068244F00260C46002828D022490A688B
:1005E000824224D84968814221D3FDF74EFD00287C
:1005F0001DD028893989884219D1696828688A6894
:10060000904214D13A460020203A0125AD02030160
:100610009B185B688B4204D25B198B4201D9208006
:1006200011E0401C80B20228F1D30020F8BD2680E2
:1006300000960AE0009829688068884205D10098F1
:100640006860388928810120F8BD2088694600F05B
:100650000DF80028EED12088401C80B220800228AE
:10066000E6D3E2E7842A00202C210020F8B50E46CC
:100670000A68124900014518002A04D050888000F9
:1006800084180C3401E06C6808340127BF026868E4
:10069000C019A0420FD92068401C0CD02046FDF79D
:1006A00081FA002802D001203460F8BD6088800003
:1006B00004190C34EBE70020F8BD0000642A002088
:1006C00008B50021009101460123044A0448FCF7C3
:1006D000AFFE002800D00E2008BD0000301C020034
:1006E0002C21002003218903401AC0B2704700006A
:1006F00003218903401A0349884201D80120704729
:1007000000207047FE3F000038B50446134800251E
:10071000436C002B08D0026CD500521C52072D18D8
:10072000520F5B1E4364026400200090A08AAB88D5
:10073000800041180A482A68FCF77AFEA18AAA8834
:100740008918A182A17D491E0906090EA17501D152
:1007500001212174002800D00E2038BD1C2A002061
:100760002C21002010B50A46FF2803D80146104668
:10077000FFF792FB10BD000070B501240B49600427
:1007800008600B4940108860094940398860094D6C
:100790006C602F20FEF70EF9AC60074D00242F206F
:1007A000AC60FEF707F9AC7070BD000080E100E0BE
:1007B0004013014000100140D020002030B5FF223E
:1007C0000523CD7D002409321B02C318002D84505F
:1007D000986905D04B7ECA68D054487E401C487644
:1007E00030BD1FB501246B461C701972019206C8FA
:1007F000684690471FBD000010B50446FAF79EFEFC
:1008000000280CD0A007C00E002C0ADA2107090F1F
:1008100008398908144A89008918C96906E013480B
:1008200010BDA108124A890089180968C14008064C
:10083000800F042811D200280FD002280DD00D49B6
:100840004B68E206D20E01209040002B08D06209CE
:1008500092008B5803438B5004E00448401C10BDA9
:1008600005490860002010BD00ED00E001200000F7
:1008700000E400E0F420002000E100E070B5049DF9
:10088000002819D0002917D0002A15D000246600AE
:10089000865B9E4211D100200123A3400AE0002D77
:1008A00003D00C1826781E4302E00C1826789E43CD
:1008B0002670401C9042F2D370BD641C082CE6D315
:1008C00070BD000070B5054600242146284600F0A2
:1008D0000DF8002801D0204670BD641CA4B2082C7D
:1008E000F3D3014870BD0000FFFF000001228A40E1
:1008F000024201D0012070470020704710B50C461D
:1009000003000CD000204100595A914204D181B219
:100910002046FFF7EBFF10BD401C0828F3D3002052
:1009200010BDF7B5002086B017460D46009000298F
:1009300013D000246E46A1B23846FFF7D7FF002837
:1009400008D0009960004900285A891988800098C9
:10095000401C0090641C082CEDD3142269460698B4
:10096000FAF7EAFB09B0F0BD08B50093134601227F
:10097000FFF784FF08BD0000F0B5054687B00C30D6
:1009800000270090FDF782FA0646264C2888694623
:10099000C880A64203D12888FDF768FA0646A64219
:1009A00013D004AA07213046FEF7C4FC00280CD15E
:1009B000059C3434207CC00706D1204612300099B3
:1009C000FDF7ECF9002800D02746002328881A46B6
:1009D000394686DF002808D009216A461171029045
:1009E00001A8FCF71DFA07B0F0BD0024002F0BD0C2
:1009F0002888002100F07CF8009401222888002338
:100A0000314600F04FF8EEE70621684601710649CD
:100A10000181847201A8FCF703FA0094002328885E
:100A20001A46EDE7FFFF000006100000002835D051
:100A30000278910701D4D1092FD15106490F042919
:100A40002BD8930703D5032901D1D10925D04178AB
:100A50008378994221D807291FD3102B1DD8C1783C
:100A60004B071AD40079430717D40B0715D4030793
:100A700013D4D20702D0CA0709D010E0CA070CD19C
:100A800089070AD4C10708D1800706D407E089077F
:100A900005D4C10703D1800701D40020704701208D
:100AA00070470000FFB581B0104D1F4616462978EB
:100AB0000A9C0198FBF768FB002E11D03A46697832
:100AC0000198FBF761FB2246A9780198FBF75CFBD4
